:020000040000FA
:100000000C948F000C94B7000C94B7000C94B700BC
:100010000C94B7000C94B7000C94B7000C94B70084
:100020000C94B7000C94B7000C94B7000C94B70074
:100030000C94B7000C94B7000C94B7000C94B70064
:100040000C943D040C94B7000C94AD040C948704FC
:100050000C94B7000C94B7000C94B7000C94B70044
:100060000C94DF040C94B70008000000BE922449F1
:10007000123EABAAAA2ABECDCCCC4C3E00000080DA
:10008000BEABAAAAAA3E00000000BF000000803F4D
:100090000000000000084178D3BB4387D1133D190D
:1000A0000E3CC3BD4282AD2B3E68EC8276BED98F3A
:1000B000E1A93E4C80EFFFBE01C4FF7F3F0000007E
:1000C00000000000000023002600290000000000BE
:1000D000240027002A0000000000250028002B0033
:1000E00004040404040404040202020202020303DE
:1000F00003030303010204081020408001020408E6
:100100001020010204081020000000080002010075
:10011000000304070000000000000000FE05112499
:100120001FBECFEFD8E0DEBFCDBF11E0A0E0B1E051
:10013000E8EEF7E102C005900D92AA35B107D9F7B4
:1001400022E0AAE5B1E001C01D92A63AB207E1F7AC
:1001500010E0CFE8D0E004C02197FE010E94EC0B34
:10016000CE38D107C9F70E9437060C94F20B0C94D5
:100170000000833081F028F4813099F08230A9F0BA
:1001800008958730A9F08830C9F08430B1F48091A7
:1001900080008F7D03C0809180008F7780938000E6
:1001A000089584B58F7784BD089584B58F7DFBCF86
:1001B0008091B0008F778093B00008958091B00057
:1001C0008F7DF9CF1F93CF93DF93282F30E0F90174
:1001D000E85FFE4F8491F901EC50FF4FD491F90193
:1001E000E052FF4FC491CC23A9F0162F81110E9439
:1001F000B900EC2FF0E0EE0FFF1FEA52FF4FA59180
:10020000B4918FB7F894EC91111108C0D095DE230A
:10021000DC938FBFDF91CF911F910895DE2BF8CF34
:10022000CF93DF9390E0FC01EC50FF4F249180527C
:100230009F4FFC0184918823D1F090E0880F991F93
:10024000FC01E453FF4FA591B491FC01EA52FF4F2A
:10025000C591D491623071F49FB7F8943C91822F8C
:10026000809583238C93E8812E2B28839FBFDF9179
:10027000CF9108958FB7F894EC912E2B2C938FBFCC
:10028000F6CF3FB7F8948091F9019091FA01A091CF
:10029000FB01B091FC0126B5A89B05C02F3F19F0CA
:1002A0000196A11DB11D3FBFBA2FA92F982F8827F6
:1002B000BC01CD01620F711D811D911D42E0660FD1
:1002C000771F881F991F4A95D1F708958F929F92A3
:1002D000AF92BF92CF92DF92EF92FF920E944101C4
:1002E0004B015C0188ECC82ED12CE12CF12C0E9432
:1002F0004101681979098A099B09683E73408105A3
:100300009105A8F321E0C21AD108E108F10888EEAE
:10031000880E83E0981EA11CB11CC114D104E10415
:10032000F10429F7FF90EF90DF90CF90BF90AF904E
:100330009F908F900895E091F201F091F301309732
:1003400029F01092EF011092EE010994089508959A
:10035000AF92BF92CF92DF92EF92FF920F931F93D3
:10036000CF93DF936C017B018B01040F151FEB0111
:100370005E01AE18BF08C017D10759F06991D601C8
:10038000ED91FC910190F081E02DC6010995892B3A
:1003900079F7C501DF91CF911F910F91FF90EF90F9
:1003A000DF90CF90BF90AF900895FC01538D448DA6
:1003B000252F30E0842F90E0821B930B541710F010
:1003C000CF96089501970895FC01918D828D98171D
:1003D00061F0A28DAE0FBF2FB11D5D968C91928DF5
:1003E0009F5F9F73928F90E008958FEF9FEF089526
:1003F000FC01918D828D981731F0828DE80FF11DEF
:10040000858D90E008958FEF9FEF0895FC01918D09
:10041000228D892F90E0805C9F4F821B91098F7302
:10042000992708958DEF91E00E94060221E0892B23
:1004300009F420E0822F089580E090E0892B29F0D4
:100440000E94120281110C9400000895FC01A48DF9
:10045000A80FB92FB11DA35ABF4F2C91848D90E0E6
:1004600001968F739927848FA689B7892C93A089C9
:10047000B1898C91837080648C93938D848D981353
:1004800006C00288F389E02D80818F7D80830895E6
:10049000EF92FF920F931F93CF93DF93EC0181E0D4
:1004A000888F9B8D8C8D98131AC0E889F98980817B
:1004B00085FF15C09FB7F894EE89FF896083E889AE
:1004C000F98980818370806480839FBF81E090E0A0
:1004D000DF91CF911F910F91FF90EF900895F62E2D
:1004E0000B8D10E00F5F1F4F0F731127E02E8C8DC7
:1004F0008E110CC00FB607FCFACFE889F98980810C
:1005000085FFF5CFCE010E942602F1CFEB8DEC0FD7
:10051000FD2FF11DE35AFF4FF0829FB7F8940B8F28
:10052000EA89FB8980818062CFCFCF93DF93EC0192
:10053000888D8823B9F0AA89BB89E889F9898C91CB
:1005400085FD03C0808186FD0DC00FB607FCF7CF87
:100550008C9185FFF2CF808185FFEDCFCE010E9487
:100560002602E9CFDF91CF9108952091A001260FB7
:100570003327331F21323105ECF42091C401FC01F3
:1005800090E080E0243069F082E00895A091A0011D
:100590002191AC0140585E4FA40FB52FB11D2C9393
:1005A0000196861798F38091A001680F6093A001CF
:1005B00080E0089581E008951092C40181E0809365
:1005C000C6011092C50161E082E10E94E20061E093
:1005D00083E10E94E200E9EBF0E080818E7F80837E
:1005E00080818D7F808388E48093B80085E4809348
:1005F000BC0008950895E091F1018091F001E817A1
:1006000030F4F0E0E65AFE4F808190E008958FEFDD
:100610009FEF08959091F1018091F0012FEF3FEF4E
:10062000981748F4E92FF0E0E65AFE4F208130E0B9
:100630009F5F9093F101C90108958091F00190911D
:10064000F101891B990B0895CF93DF93CB01EA0148
:10065000642F0E94B502CE01DF91CF910895CF9310
:10066000DF9300D000D0CDB7DEB7E0E0F1E08081CD
:10067000898381818A8382818B8383818C8344E017
:1006800050E0BE016F5F7F4F8AE992E00E94240331
:100690000F900F900F900F90DF91CF910895CF930F
:1006A000DF931F92CDB7DEB7698361E0CE0101967B
:1006B0000E94B50281E090E00F90DF91CF91089504
:1006C00090E080E00895FC0101900020E9F7319767
:1006D000AF01481B590BBC018DEF91E00C94A801B0
:1006E0008F929F92AF92BF920F931F93CF93DF93FE
:1006F000CDB7DEB7A1970FB6F894DEBF0FBECDBF62
:1007000019A2423008F44AE08E010F5D1F4F842E7B
:10071000912CB12CA12CA50194010E94CA0BE62FAB
:10072000B901CA01EA30F4F4E05DD801EE938D011D
:10073000232B242B252B79F790E080E0109719F0DC
:10074000CD010E946303A1960FB6F894DEBF0FBEE1
:10075000CDBFDF91CF911F910F91BF90AF909F9030
:100760008F900895E95CE1CFCF92DF92EF92FF92F4
:10077000CF93DF936C01990FEE08FF08F7FE1FC0BF
:100780006DE28DEF91E00E944802EC016627772729
:10079000CB016C197D098E099F094AE00E94700304
:1007A000C80FD91F88E291E00E9463038C0F9D1F40
:1007B000DF91CF91FF90EF90DF90CF9008954AE0C6
:1007C000C701B6010E947003EC01ECCFCF93DF9319
:1007D00085ED8093BC0080917C0190917D01A0917A
:1007E0007E01B0917F010796A11DB11D23E0B69552
:1007F000A795979587952A95D1F72091BC0024FD60
:1008000003C01092C40136C040917C0150917D011B
:1008100060917E0170917F01452B462B472B69F338
:100820000097A105B10541F02AE22A95F1F700C031
:100830000197A109B109E1CF80917B0191E09093EB
:100840007A018823B9F0C091B800D091BA008091A4
:10085000BC008A7B8093BC0060E082E10E94E200E1
:1008600060E083E10E94E2000E94DC02D093BA00C3
:10087000C093B800DF91CF9108951F920F920FB6E9
:100880000F9211242F933F938F939F93AF93BF9316
:100890008091F5019091F601A091F701B091F801D6
:1008A0003091F40123E0230F2D3758F50196A11D57
:1008B000B11D2093F4018093F5019093F601A0936C
:1008C000F701B093F8018091F9019091FA01A0919C
:1008D000FB01B091FC010196A11DB11D8093F901AE
:1008E0009093FA01A093FB01B093FC01BF91AF91EB
:1008F0009F918F913F912F910F900FBE0F901F905E
:10090000189526E8230F0296A11DB11DD2CF1F9284
:100910000F920FB60F9211242F933F934F935F9333
:100920006F937F938F939F93AF93BF93EF93FF93B7
:100930008DEF91E00E942602FF91EF91BF91AF9160
:100940009F918F917F916F915F914F913F912F91E7
:100950000F900FBE0F901F9018951F920F920FB619
:100960000F9211242F938F939F93EF93FF93E09116
:100970000D02F0910E028081E0911302F0911402B9
:1009800082FD1BC09081809116028F5F8F73209132
:100990001702821741F0E0911602F0E0E350FE4F9B
:1009A000958F80931602FF91EF919F918F912F91D8
:1009B0000F900FBE0F901F9018958081F4CF1F925B
:1009C0000F920FB60F9211242F933F934F935F9383
:1009D0006F937F938F939F93AF93BF93EF93FF9307
:1009E0008091B900887F803609F44AC0F0F58832DA
:1009F00009F4A7C018F5803109F49BC0B8F4882326
:100A000009F4F9C0883009F494C0FF91EF91BF91C7
:100A1000AF919F918F917F916F915F914F913F9196
:100A20002F910F900FBE0F901F901895883109F4E9
:100A300088C0803251F78093C30114C0803409F418
:100A40009DC040F48033B9F38833F9F68093C30135
:100A500085ECB0C0803509F485C0883509F496C0AE
:100A6000883499F60E94E603D0CF883909F48CC007
:100A700038F5883729F050F4883611F0803729F698
:100A800083E08093C4011092C20157C0883809F4F2
:100A90007BC0803919F0803809F0B7CF8091C2014E
:100AA000803208F071C0E091C20181E08E0F809326
:100AB000C2018091BB00F0E0EE55FE4F80833DC047
:100AC000803B39F0E0F4803A09F479C0883A09F0C3
:100AD0009CCF84E08093C4011092A1011092A001E8
:100AE000E091EC01F091ED0109958091A001811157
:100AF0000FC081E08093A0011092800109C0803C6A
:100B000009F4A6CF883C09F4A3CF883B09F07DCF38
:100B1000E091A10181E08E0F8093A101F0E0E05807
:100B2000FE4F80818093BB009091A1018091A00134
:100B300029C08091E9018093BB0085EC8093BC00C3
:100B400064CF9091E8018091E701981758F5E09102
:100B5000E80181E08E0F8093E801F0E0E953FE4F59
:100B60008081E9CFE091E80181E08E0F8093E80178
:100B70008091BB00F0E0E953FE4F80839091E80143
:100B80008091E7019817C8F285E8D8CFE091E80195
:100B900081E08E0F8093E8018091BB00F0E0E95383
:100BA000FE4F80838091C60181115CCF81E08093EC
:100BB000C50184EA8093BC001092C40126CF85EC65
:100BC0008093BC001092C4018091C201803230F445
:100BD000E091C201F0E0EE55FE4F10826091C2013B
:100BE00070E0E091EA01F091EB0182EA91E0099571
:100BF0001092C2010ACF1092C30134CFEDEFF1E0A1
:100C00001382128288EE93E0A0E0B0E084839583A3
:100C1000A683B78328E031E03183208325EC30E0E0
:100C20003587248724EC30E03787268720EC30E0B6
:100C3000318B208B21EC30E0338B228B22EC30E0A7
:100C4000358B248B26EC30E0378B268B118E128E61
:100C5000138E148EEAE9F2E0138212828483958364
:100C6000A683B7838AE191E0918380830895CF932F
:100C7000DF9300D000D0CDB7DEB7789484B5826022
:100C800084BD84B5816084BD85B5826085BD85B530
:100C9000816085BD80916E00816080936E001092AE
:100CA0008100809181008260809381008091810029
:100CB00081608093810080918000816080938000BA
:100CC0008091B10084608093B1008091B000816018
:100CD0008093B00080917A00846080937A00809144
:100CE0007A00826080937A0080917A00816080939C
:100CF0007A0080917A00806880937A001092C10017
:100D000062E082E00E94100161E084E00E94100134
:100D100061E083E00E9410011092F1011092F00155
:100D20001092EF011092EE010E94DC028BE991E03B
:100D30009093ED018093EC0187EA91E09093EB01B1
:100D40008093EA0180E28093BA008FE293E090936F
:100D5000F3018093F201E0910D02F0910E0282E026
:100D60008083E0910902F0910A021082E0910B0267
:100D7000F0910C028FEC808310921502E091110229
:100D8000F091120286E08083E0910F02F091100250
:100D9000808180618083E0910F02F0911002808158
:100DA00088608083E0910F02F0911002808180685A
:100DB0008083E0910F02F091100280818F7D80830B
:100DC0002BE0222E21E0322E30E0832E30E0932ED5
:100DD000EAE0F1E08491E6EFF0E01491E2EEF0E079
:100DE0000491002309F454C081110E94B900E02F3E
:100DF000F0E0EE0FFF1FEE53FF4FA591B4918C91E1
:100E0000182381E000E009F480E0182F612F84E0CE
:100E10000E94E200F0E4F0937C0080917A0080640C
:100E200080937A0080917A0086FDFCCF60917800F3
:100E300070917900CB0101978E3F934060F161E0A2
:100E400083E00E94100160E083E00E94E200F894D9
:100E500010920001109201011093020181E0809331
:100E6000030178948BE291E00E946303812F902F1D
:100E70000E94B4030E9466018114910409F4A8CF72
:100E80000E941202882309F4A3CF0E940000A0CF81
:100E900010E000E0BBCF072E000C880B990B0E94DE
:100EA0001E0A6B017C0120E030E44CE156E40E9414
:100EB000230B2B013C01A701960160E070EC8FE74A
:100EC00094E40E9402099B01AC01C301B2010E949B
:100ED000740920E030E44CE156E40E9474090E9459
:100EE000DB0A20E030EE46E755E40E9474092FE06B
:100EF0003FEC4BE55BE30E9403099B01AC0160E022
:100F000070E080E89FE30E94740923E333E948E836
:100F100053E40E9402096B017C0120E030E040E2D2
:100F200051E40E94030920E030E048E452E40E94CA
:100F300074092B013C0120E030E0A9010E946F09F7
:100F400087FD8DC020E030E040E85FE3C301B201DF
:100F50000E94CE0A18160CF486C020E030E04FE75D
:100F600053E4C301B2010E94230B20E030E040E0D3
:100F70005FE30E9403090E94E6092B015B0161E027
:100F800083E00E9410014114510409F073C060E035
:100F900083E00E94E20020E030E040E251E4C7013B
:100FA000B6010E94230B2B013C0120E030E0A90197
:100FB0000E94CE0A20E030E040E05FE387FDA2C05F
:100FC000C301B2010E9403090E94E609F8946093EC
:100FD00000017093010110930201109203017894B3
:100FE000F894809100018983809101018A83809126
:100FF00002018B83809103018C83789489E391E0D3
:101000000E946303CE0101965C01712CF501619190
:101010005F0170E090E080E04AE00E94700373940A
:10102000F4E07F1274C089E491E00E94630388E2D7
:1010300091E00E9463038BE491E00E946303A701A7
:101040009601C701B6010E94900B882309F464C081
:101050008EE491E00E9463038CE491E005CF412C83
:10106000512C32017ACF412C512C80E8682E8FE32D
:10107000782E73CF8FEF4816510411F461E088CFBA
:10108000F1018491833021F148F48130B9F082304C
:10109000D1F0F0E8AF16B1048CF779CF873011F1B9
:1010A000883041F18430A9F780918000806280937C
:1010B000800050928B0040928A006DCF84B580688A
:1010C00084BD47BC68CF84B5806284BD48BC63CF13
:1010D00080918000806880938000509289004092C7
:1010E000880059CF8091B00080688093B000409212
:1010F000B30051CF8091B00080628093B0004092E5
:10110000B40049CFC301B2010E9402095DCF86E459
:1011100091E00E9463037ACF26013701E89477F8C3
:101120002FEF3FEF4FE75FE7C301B2010E94900B43
:1011300081110DC02FEF3FEF4FE75FE7C301B20111
:101140000E946F0918161CF482E591E083CF2FEFFF
:101150003FEF4FE75FE4C701B6010E94CE0A1816C1
:101160001CF486E591E076CF2FEF3FEF4FE75FEC81
:10117000C701B6010E946F0987FDF3CF20E030E080
:10118000A901C701B6010E946F0987FF09C06DE27E
:101190008DEF91E00E944802F7FAF094F7F8F0948E
:1011A0002DEC3CEC4CE45DE3C701B6010E94030961
:1011B0002B013C010E94ED096B017C010E941C0A7D
:1011C0009B01AC01C301B2010E9402092B013C0149
:1011D0004AE0C701B6010E9470036EE28DEF91E014
:1011E0000E94480220E030E040E251E4C301B20135
:1011F0000E94230B0E94ED0990E080E04AE00E94EB
:1012000070032ACF5058BB27AA270E941A090C94B2
:10121000940A0E94860A38F00E948D0A20F039F460
:101220009F3F19F426F40C94830A0EF4E095E7FB33
:101230000C947D0AE92F0E94A50A58F3BA17620799
:1012400073078407950720F079F4A6F50C94C70A74
:101250000EF4E0950B2EBA2FA02D0B01B9019001D1
:101260000C01CA01A0011124FF27591B99F0593F15
:1012700050F4503E68F11A16F040A22F232F342F5D
:101280004427585FF3CF469537952795A795F040AB
:101290005395C9F77EF41F16BA0B620B730B840BC0
:1012A000BAF09150A1F0FF0FBB1F661F771F881F78
:1012B000C2F70EC0BA0F621F731F841F48F48795D0
:1012C00077956795B795F7959E3F08F0B0CF9395C2
:1012D000880F08F09927EE0F9795879508950E943B
:1012E000590A08F481E008950E9488090C94940A30
:1012F0000E948D0A58F00E94860A40F029F45F3F50
:1013000029F00C947D0A51110C94C80A0C94830A9C
:101310000E94A50A68F39923B1F3552391F3951B15
:10132000550BBB27AA2762177307840738F09F5F06
:101330005F4F220F331F441FAA1FA9F335D00E2E73
:101340003AF0E0E832D091505040E695001CCAF7E0
:101350002BD0FE2F29D0660F771F881FBB1F2617A3
:1013600037074807AB07B0E809F0BB0B802DBF017A
:10137000FF2793585F4F3AF09E3F510578F00C9449
:101380007D0A0C94C80A5F3FE4F3983ED4F3869537
:1013900077956795B795F7959F5FC9F7880F911D6A
:1013A0009695879597F90895E1E0660F771F881F56
:1013B000BB1F621773078407BA0720F0621B730B09
:1013C000840BBA0BEE1F88F7E09508950E94ED0993
:1013D0006894B1110C94C80A08950E94AD0A88F06F
:1013E0009F5798F0B92F9927B751B0F0E1F0660FE9
:1013F000771F881F991F1AF0BA95C9F714C0B1302A
:1014000091F00E94C70AB1E008950C94C70A672FB3
:10141000782F8827B85F39F0B93FCCF38695779558
:101420006795B395D9F73EF4909580957095619541
:101430007F4F8F4F9F4F0895E89409C097FB3EF46C
:1014400090958095709561957F4F8F4F9F4F992311
:10145000A9F0F92F96E9BB279395F695879577958F
:101460006795B795F111F8CFFAF4BB0F11F460FF4F
:101470001BC06F5F7F4F8F4F9F4F16C0882311F0A7
:1014800096E911C0772321F09EE8872F762F05C0BB
:10149000662371F096E8862F70E060E02AF09A9556
:1014A000660F771F881FDAF7880F9695879597F94B
:1014B0000895990F0008550FAA0BE0E8FEEF1616E5
:1014C0001706E807F907C0F012161306E407F50738
:1014D00098F0621B730B840B950B39F40A2661F0AC
:1014E000232B242B252B21F408950A2609F4A1404F
:1014F000A6958FEF811D811D089597F99F6780E85C
:1015000070E060E008959FEF80EC089500240A9455
:101510001616170618060906089500240A941216CE
:101520001306140605060895092E0394000C11F401
:10153000882352F0BB0F40F4BF2B11F460FF04C0AE
:101540006F5F7F4F8F4F9F4F089557FD9058440F07
:10155000551F59F05F3F71F04795880F97FB991F12
:1015600061F09F3F79F087950895121613061406CF
:10157000551FF2CF4695F1DF08C01616170618065C
:10158000991FF1CF86957105610508940895E89437
:10159000BB2766277727CB0197F908950E94590A40
:1015A00008F48FEF089516F00C94950B0C94830AB1
:1015B00068940C947D0A0E94AD0AA8F39923C1F3A4
:1015C000AEF3DF93CF931F930F93FF92C92FDD27C5
:1015D00088232AF02197660F771F881FDAF720E00B
:1015E00030E040E85FEB9FE3883920F0803E38F040
:1015F00021968F770E940309E8E6F0E004C00E947C
:101600000309E5E9F0E00E94A30B8B01BE01EC01A8
:10161000FB2E6F5771097595771F880B990B0E94E8
:101620001E0A28E132E741E35FE30E94360BAF2D4B
:101630009801AE01FF900F911F91CF91DF910E9411
:101640001A090C94940A0E94360B0C94940A0E9476
:10165000860A38F00E948D0A20F0952311F00C9430
:101660007D0A0C94830A11240C94C80A0E94A50ACE
:1016700070F3959FC1F3950F50E0551F629FF001E5
:10168000729FBB27F00DB11D639FAA27F00DB11DFE
:10169000AA1F649F6627B00DA11D661F829F222787
:1016A000B00DA11D621F739FB00DA11D621F839F0E
:1016B000A00D611D221F749F3327A00D611D231FE4
:1016C000849F600D211D822F762F6A2F11249F5732
:1016D00050409AF0F1F088234AF0EE0FFF1FBB1F35
:1016E000661F771F881F91505040A9F79E3F5105F4
:1016F00080F00C947D0A0C94C80A5F3FE4F3983E96
:10170000D4F3869577956795B795F795E7959F5F9D
:10171000C1F7FE2B880F911D9695879597F908952F
:101720000E94590A880B990B08959F3F31F0915000
:1017300020F4879577956795B795880F911D9695B5
:10174000879597F90895DF93CF931F930F93FF9297
:10175000EF92DF927B018C01689406C0DA2EEF01D4
:101760000E94360BFE01E894A59125913591459193
:101770005591A6F3EF010E941A09FE019701A801F5
:10178000DA9469F7DF90EF90FF900F911F91CF915E
:10179000DF910895A1E21A2EAA1BBB1BFD010DC00B
:1017A000AA1FBB1FEE1FFF1FA217B307E407F50711
:1017B00020F0A21BB30BE40BF50B661F771F881FED
:1017C000991F1A9469F760957095809590959B0183
:1017D000AC01BD01CF010895EE0FFF1F0590F491FC
:1017E000E02D0994F894FFCF0000000200000000F3
:1017F0004802A801D50195020602E401F8010000A3
:1018000000004F0324036003FA021D030A03FB02D6
:101810000D0A004552523B413B53454E534F523BFC
:10182000004932432D50616B65743A205B002C20D7
:10183000005D00413B006E616E00696E66006F7670
:02184000660040
:107E0000112484B714BE81FFF0D085E080938100F7
:107E100082E08093C00088E18093C10086E0809377
:107E2000C20080E18093C4008EE0C9D0259A86E02C
:107E300020E33CEF91E0309385002093840096BBD3
:107E4000B09BFECF1D9AA8958150A9F7CC24DD24C4
:107E500088248394B5E0AB2EA1E19A2EF3E0BF2EE7
:107E6000A2D0813461F49FD0082FAFD0023811F036
:107E7000013811F484E001C083E08DD089C08234E0
:107E800011F484E103C0853419F485E0A6D080C0E4
:107E9000853579F488D0E82EFF2485D0082F10E0AE
:107EA000102F00270E291F29000F111F8ED06801E7
:107EB0006FC0863521F484E090D080E0DECF843638
:107EC00009F040C070D06FD0082F6DD080E0C81688
:107ED00080E7D80618F4F601B7BEE895C0E0D1E017
:107EE00062D089930C17E1F7F0E0CF16F0E7DF06D8
:107EF00018F0F601B7BEE89568D007B600FCFDCFD4
:107F0000A601A0E0B1E02C9130E011968C91119780
:107F100090E0982F8827822B932B1296FA010C0160
:107F200087BEE89511244E5F5F4FF1E0A038BF0790
:107F300051F7F601A7BEE89507B600FCFDCF97BE46
:107F4000E89526C08437B1F42ED02DD0F82E2BD052
:107F50003CD0F601EF2C8F010F5F1F4F84911BD097
:107F6000EA94F801C1F70894C11CD11CFA94CF0C13
:107F7000D11C0EC0853739F428D08EE10CD085E9AC
:107F80000AD08FE07ACF813511F488E018D01DD067
:107F900080E101D065CF982F8091C00085FFFCCF94
:107FA0009093C60008958091C00087FFFCCF809118
:107FB000C00084FD01C0A8958091C6000895E0E648
:107FC000F0E098E1908380830895EDDF803219F02E
:107FD00088E0F5DFFFCF84E1DECF1F93182FE3DFCA
:107FE0001150E9F7F2DF1F91089580E0E8DFEE27F6
:047FF000FF270994CA
:027FFE00040479
:00000001FF
