:100000000C948F000C94B7000C94B7000C94B700BC
:100010000C94B7000C94B7000C94B7000C94B70084
:100020000C94B7000C94B7000C94B7000C94B70074
:100030000C94B7000C94B7000C94B7000C94B70064
:100040000C94A8020C94B7000C9418030C94F202C0
:100050000C94B7000C94B7000C94B7000C94B70044
:100060000C94B7000C94B70008000000BE9224491D
:10007000123EABAAAA2ABECDCCCC4C3E00000080DA
:10008000BEABAAAAAA3E00000000BF000000803F4D
:100090000000000000084178D3BB4387D1133D190D
:1000A0000E3CC3BD4282AD2B3E68EC8276BED98F3A
:1000B000E1A93E4C80EFFFBE01C4FF7F3F0000007E
:1000C00000000000000023002600290000000000BE
:1000D000240027002A0000000000250028002B0033
:1000E00004040404040404040202020202020303DE
:1000F00003030303010204081020408001020408E6
:100100001020010204081020000000080002010075
:10011000000304070000000000000000E8041124B0
:100120001FBECFEFD8E0DEBFCDBF11E0A0E0B1E051
:10013000E0ECFFE002C005900D92A231B107D9F7C3
:1001400021E0A2E1B1E001C01D92A83BB207E1F7B6
:1001500010E0CFE8D0E004C02197FE010E94D8074C
:10016000CE38D107C9F70E944A030C94DE070C94DD
:100170000000833081F028F4813099F08230A9F0BA
:1001800008958730A9F08830C9F08430B1F48091A7
:1001900080008F7D03C0809180008F7780938000E6
:1001A000089584B58F7784BD089584B58F7DFBCF86
:1001B0008091B0008F778093B00008958091B00057
:1001C0008F7DF9CF1F93CF93DF93282F30E0F90174
:1001D000E85FFE4F8491F901EC50FF4FD491F90193
:1001E000E052FF4FC491CC23A9F0162F81110E9439
:1001F000B900EC2FF0E0EE0FFF1FEA52FF4FA59180
:10020000B4918FB7F894EC91111108C0D095DE230A
:10021000DC938FBFDF91CF911F910895DE2BF8CF34
:10022000CF93DF9390E0FC01EC50FF4F249180527C
:100230009F4FFC0184918823D1F090E0880F991F93
:10024000FC01E453FF4FA591B491FC01EA52FF4F2A
:10025000C591D491623071F49FB7F8943C91822F8C
:10026000809583238C93E8812E2B28839FBFDF9179
:10027000CF9108958FB7F894EC912E2B2C938FBFCC
:10028000F6CF3FB7F8948091B4019091B501A09159
:10029000B601B091B70126B5A89B05C02F3F19F054
:1002A0000196A11DB11D3FBFBA2FA92F982F8827F6
:1002B000BC01CD01620F711D811D911D42E0660FD1
:1002C000771F881F991F4A95D1F708958F929F92A3
:1002D000AF92BF92CF92DF92EF92FF920E944101C4
:1002E0004B015C0188ECC82ED12CE12CF12C0E9432
:1002F0004101681979098A099B09683E73408105A3
:100300009105A8F321E0C21AD108E108F10888EEAE
:10031000880E83E0981EA11CB11CC114D104E10415
:10032000F10429F7FF90EF90DF90CF90BF90AF904E
:100330009F908F900895AF92BF92CF92DF92EF92ED
:10034000FF920F931F93CF93DF936C017B018B017F
:10035000040F151FEB015E01AE18BF08C017D107CF
:1003600059F06991D601ED91FC910190F081E02D59
:10037000C6010995892B79F7C501DF91CF911F91AE
:100380000F91FF90EF90DF90CF90BF90AF900895C6
:10039000FC01538D448D252F30E0842F90E0821B8B
:1003A000930B541710F0CF96089501970895FC0110
:1003B000918D828D981761F0A28DAE0FBF2FB11D68
:1003C0005D968C91928D9F5F9F73928F90E00895C0
:1003D0008FEF9FEF0895FC01918D828D981731F07A
:1003E000828DE80FF11D858D90E008958FEF9FEFCE
:1003F0000895FC01918D228D892F90E0805C9F4FA4
:10040000821B91098F739927089582E191E00E94E0
:10041000F90121E0892B09F420E0822F089580E082
:1004200090E0892B29F00E94050281110C940000B4
:100430000895FC01A48DA80FB92FB11DA35ABF4F79
:100440002C91848D90E001968F739927848FA689D3
:10045000B7892C93A089B1898C91837080648C9327
:10046000938D848D981306C00288F389E02D8081D6
:100470008F7D80830895EF92FF920F931F93CF9308
:10048000DF93EC0181E0888F9B8D8C8D98131AC0CF
:10049000E889F989808185FF15C09FB7F894EE89B6
:1004A000FF896083E889F989808183708064808313
:1004B0009FBF81E090E0DF91CF911F910F91FF905E
:1004C000EF900895F62E0B8D10E00F5F1F4F0F7306
:1004D0001127E02E8C8D8E110CC00FB607FCFACFC1
:1004E000E889F989808185FFF5CFCE010E94190244
:1004F000F1CFEB8DEC0FFD2FF11DE35AFF4FF08292
:100500009FB7F8940B8FEA89FB8980818062CFCFF7
:10051000CF93DF93EC01888D8823B9F0AA89BB893A
:10052000E889F9898C9185FD03C0808186FD0DC025
:100530000FB607FCF7CF8C9185FFF2CF808185FF46
:10054000EDCFCE010E941902E9CFDF91CF9108953E
:100550001F920F920FB60F9211242F933F938F93F8
:100560009F93AF93BF938091B0019091B101A091FF
:10057000B201B091B3013091AF0123E0230F2D37C9
:1005800058F50196A11DB11D2093AF018093B001D4
:100590009093B101A093B201B093B3018091B401E3
:1005A0009091B501A091B601B091B7010196A11D3E
:1005B000B11D8093B4019093B501A093B601B0939F
:1005C000B701BF91AF919F918F913F912F910F9064
:1005D0000FBE0F901F90189526E8230F0296A11DBD
:1005E000B11DD2CF1F920F920FB60F9211242F93ED
:1005F0003F934F935F936F937F938F939F93AF93AB
:10060000BF93EF93FF9382E191E00E941902FF9163
:10061000EF91BF91AF919F918F917F916F915F917A
:100620004F913F912F910F900FBE0F901F901895F3
:100630001F920F920FB60F9211242F938F939F93B7
:10064000EF93FF93E0912201F09123018081E091EB
:100650002801F091290182FD1BC0908180912B011E
:100660008F5F8F7320912C01821741F0E0912B0155
:10067000F0E0EE5EFE4F958F80932B01FF91EF919E
:100680009F918F912F910F900FBE0F901F901895F3
:100690008081F4CF789484B5826084BD84B5816014
:1006A00084BD85B5826085BD85B5816085BD80913D
:1006B0006E00816080936E001092810080918100B5
:1006C00082608093810080918100816080938100AD
:1006D000809180008160809380008091B10084606F
:1006E0008093B1008091B00081608093B0008091D0
:1006F0007A00846080937A0080917A00826080938F
:100700007A0080917A00816080937A0080917A00EB
:10071000806880937A001092C10062E082E00E94BB
:10072000100161E084E00E94100161E083E00E941A
:100730001001E0912201F091230182E08083E09199
:100740001E01F0911F011082E0912001F091210122
:100750008FEC808310922A01E0912601F09127010D
:1007600086E08083E0912401F09125018081806101
:100770008083E0912401F09125018081886080834D
:10078000E0912401F0912501808180688083E091CF
:100790002401F091250180818F7D80832AE0822EC3
:1007A00021E0922E06EF10E032EEE32E30E0F32E41
:1007B00040E4342E5BE0A52E51E0B52E60E0C62E5D
:1007C00060E0D62EF4018491F801C491F701D49130
:1007D000DD2379F081110E94B900ED2FF0E0EE0FDA
:1007E000FF1FEE53FF4FA591B4918C91C82361E098
:1007F00009F460E084E00E94E20030927C00809185
:100800007A00806480937A0080917A0086FDFCCF24
:100810006091780070917900CB0101978E3F9340F1
:10082000B0F061E083E00E94100160E083E00E948C
:10083000E2000E946601C114D10409F4C3CF0E94F2
:100840000502882309F4BECF0E940000BBCF072E0B
:10085000000C880B990B0E9431069B01AC0160E0F3
:1008600070EC8FE794E40E94870520E030E040E8D8
:100870005FE30E9415059B01AC0160E070E080E839
:100880009FE30E9487050E94EE0620E030EE46E7D7
:1008900055E40E9487052FE03FEC4BE55BE30E94A7
:1008A00016059B01AC0160E070E080E89FE30E94C8
:1008B000870523E333E948E853E40E94150520E067
:1008C00030E040E251E40E94160520E030E048E4C8
:1008D00052E40E9487052B013C0120E030E0A90191
:1008E0000E94820587FD28C020E030E040E85FE3F9
:1008F000C301B2010E94E106181614F120E030E0B5
:100900004FE753E4C301B2010E94360720E030E014
:1009100040E05FE30E9416050E94F9052B01EB0100
:1009200061E083E00E941001209709F47ECFCF3F61
:10093000D10569F461E07ACF412C512C3201DECF30
:10094000412C512C80E8682E8FE3782ED7CFF5010B
:100950008491833019F140F48130B1F08230C9F0D4
:10096000C038D1053CF761CF873011F1883041F1B3
:100970008430B1F780918000806280938000509233
:100980008B0040928A0055CF84B5806884BD47BCF7
:1009900050CF84B5806284BD48BC4BCF809180002D
:1009A000806880938000509289004092880041CFF7
:1009B0008091B00080688093B0004092B30039CF3E
:1009C0008091B00080628093B0004092B40031CF3B
:1009D000E2E1F1E01382128288EE93E0A0E0B0E061
:1009E00084839583A683B78384E091E09183808399
:1009F00085EC90E09587848784EC90E097878687E4
:100A000080EC90E0918B808B81EC90E0938B828BDB
:100A100082EC90E0958B848B86EC90E0978B868BB4
:100A2000118E128E138E148E08955058BB27AA274C
:100A30000E942D050C94A7060E94990638F00E948A
:100A4000A00620F039F49F3F19F426F40C94960682
:100A50000EF4E095E7FB0C949006E92F0E94B8068F
:100A600058F3BA17620773078407950720F079F4E3
:100A7000A6F50C94DA060EF4E0950B2EBA2FA02DF5
:100A80000B01B90190010C01CA01A0011124FF273B
:100A9000591B99F0593F50F4503E68F11A16F04036
:100AA000A22F232F342F4427585FF3CF4695379535
:100AB0002795A795F0405395C9F77EF41F16BA0BFA
:100AC000620B730B840BBAF09150A1F0FF0FBB1FA8
:100AD000661F771F881FC2F70EC0BA0F621F731FF1
:100AE000841F48F4879577956795B795F7959E3F4E
:100AF00008F0B0CF9395880F08F09927EE0F9795DF
:100B0000879508950E946C0608F481E008950E947C
:100B10009B050C94A7060E94A00658F00E94990617
:100B200040F029F45F3F29F00C94900651110C9489
:100B3000DB060C9496060E94B80668F39923B1F37D
:100B4000552391F3951B550BBB27AA2762177307F3
:100B5000840738F09F5F5F4F220F331F441FAA1F87
:100B6000A9F335D00E2E3AF0E0E832D09150504043
:100B7000E695001CCAF72BD0FE2F29D0660F771FF1
:100B8000881FBB1F261737074807AB07B0E809F0D7
:100B9000BB0B802DBF01FF2793585F4F3AF09E3F5C
:100BA000510578F00C9490060C94DB065F3FE4F35B
:100BB000983ED4F3869577956795B795F7959F5F9F
:100BC000C9F7880F911D9695879597F90895E1E0EB
:100BD000660F771F881FBB1F621773078407BA074A
:100BE00020F0621B730B840BBA0BEE1F88F7E095A5
:100BF00008950E9400066894B1110C94DB060895D4
:100C00000E94C00688F09F5798F0B92F9927B751D6
:100C1000B0F0E1F0660F771F881F991F1AF0BA95A0
:100C2000C9F714C0B13091F00E94DA06B1E008951E
:100C30000C94DA06672F782F8827B85F39F0B93F10
:100C4000CCF3869577956795B395D9F73EF4909553
:100C50008095709561957F4F8F4F9F4F0895E894D1
:100C600009C097FB3EF490958095709561957F4FF4
:100C70008F4F9F4F9923A9F0F92F96E9BB279395A2
:100C8000F695879577956795B795F111F8CFFAF4B2
:100C9000BB0F11F460FF1BC06F5F7F4F8F4F9F4FE3
:100CA00016C0882311F096E911C0772321F09EE841
:100CB000872F762F05C0662371F096E8862F70E0A7
:100CC00060E02AF09A95660F771F881FDAF7880F81
:100CD0009695879597F90895990F0008550FAA0BD7
:100CE000E0E8FEEF16161706E807F907C0F012163F
:100CF0001306E407F50798F0621B730B840B950B42
:100D000039F40A2661F0232B242B252B21F4089596
:100D10000A2609F4A140A6958FEF811D811D089533
:100D200097F99F6780E870E060E008959FEF80EC9E
:100D3000089500240A941616170618060906089541
:100D400000240A9412161306140605060895092EA7
:100D50000394000C11F4882352F0BB0F40F4BF2B16
:100D600011F460FF04C06F5F7F4F8F4F9F4F089556
:100D700057FD9058440F551F59F05F3F71F047954C
:100D8000880F97FB991F61F09F3F79F08795089531
:100D9000121613061406551FF2CF4695F1DF08C050
:100DA000161617061806991FF1CF8695710561056D
:100DB00008940895E894BB2766277727CB0197F915
:100DC00008950E946C0608F48FEF089516F00C94B5
:100DD000A3070C94960668940C9490060E94C00693
:100DE000A8F39923C1F3AEF3DF93CF931F930F932F
:100DF000FF92C92FDD2788232AF02197660F771FDE
:100E0000881FDAF720E030E040E85FEB9FE38839A5
:100E100020F0803E38F021968F770E941605E8E694
:100E2000F0E004C00E941605E5E9F0E00E94B10779
:100E30008B01BE01EC01FB2E6F5771097595771F71
:100E4000880B990B0E94310628E132E741E35FE30A
:100E50000E944907AF2D9801AE01FF900F911F919D
:100E6000CF91DF910E942D050C94A7060E9449079F
:100E70000C94A7060E94990638F00E94A00620F064
:100E8000952311F00C9490060C94960611240C9462
:100E9000DB060E94B80670F3959FC1F3950F50E0F2
:100EA000551F629FF001729FBB27F00DB11D639F1C
:100EB000AA27F00DB11DAA1F649F6627B00DA11DC2
:100EC000661F829F2227B00DA11D621F739FB00D68
:100ED000A11D621F839FA00D611D221F749F3327D8
:100EE000A00D611D231F849F600D211D822F762F71
:100EF0006A2F11249F5750409AF0F1F088234AF04E
:100F0000EE0FFF1FBB1F661F771F881F91505040B9
:100F1000A9F79E3F510580F00C9490060C94DB06D7
:100F20005F3FE4F3983ED4F3869577956795B79540
:100F3000F795E7959F5FC1F7FE2B880F911D96955A
:100F4000879597F908959F3F31F0915020F4879548
:100F500077956795B795880F911D9695879597F921
:100F60000895DF93CF931F930F93FF92EF92DF9239
:100F70007B018C01689406C0DA2EEF010E944907BC
:100F8000FE01E894A5912591359145915591A6F3DF
:100F9000EF010E942D05FE019701A801DA9469F77F
:100FA000DF90EF90FF900F911F91CF91DF91089507
:100FB000EE0FFF1F0590F491E02D0994F894FFCFF8
:100FC000000000003B029B01C8018802F901D70123
:020FD000EB0133
:00000001FF
