:020000040000FA
:100000000C9462000C948A000C948A000C948A0070
:100010000C948A000C948A000C948A000C948A0038
:100020000C948A000C948A000C948A000C948A0028
:100030000C948A000C948A000C948A000C948A0018
:100040000C94B4030C948A000C9424040C94FE03C6
:100050000C948A000C948A000C948A000C948A00F8
:100060000C948A000C948A000000000024002700F1
:100070002A0000000000250028002B0000000008D6
:10008000000201000003040700000000000000005F
:1000900000000000230026002900040404040404D6
:1000A0000404020202020202030303030303010227
:1000B00004081020408001020408102001020408F6
:1000C0001020560411241FBECFEFD8E0DEBFCDBFF5
:1000D00011E0A0E0B1E0E6EAF1E102C005900D9286
:1000E000A833B107D9F721E0A8E3B1E001C01D9220
:1000F000A13FB207E1F710E0C2E6D0E004C02197CB
:10010000FE010E94CB08C136D107C9F70E94A304A3
:100110000C94D1080C940000CF92DF92EF92FF92E2
:10012000CF93DF93B091E501A0E08111AB2F8091D7
:10013000E60190E0880F991FAC0140575F4FC090D7
:10014000EB01D090EC01E090ED01F090EE0130E099
:1001500020E0FA01C591D491E881B90190E080E0F6
:10016000EB23EA130AC02F5F3F4F6C157D058E0508
:100170009F0578F36FEF7FEFCB01DF91CF91FF9079
:10018000EF90DF90CF90089590E0FC01E458FF4F8E
:100190002491FC01E255FF4F3491FC01E656FF4FDC
:1001A000E491EE23C9F0222339F0233001F1A8F4C1
:1001B000213019F1223029F1F0E0EE0FFF1FEE5847
:1001C000FF4FA591B4918FB7F894EC91611126C0BF
:1001D00030953E233C938FBF08952730A9F02830F7
:1001E000C9F0243049F7809180008F7D03C0809151
:1001F00080008F7780938000DFCF84B58F7784BDB8
:10020000DBCF84B58F7DFBCF8091B0008F7780935B
:10021000B000D2CF8091B0008F7DF9CF3E2BDACFE6
:10022000CF93DF9390E0FC01E255FF4F2491865677
:100230009F4FFC0184918823D1F090E0880F991F93
:10024000FC01E859FF4FA591B491FC01EE58FF4F16
:10025000C591D491623071F49FB7F8943C91822F8C
:10026000809583238C93E8812E2B28839FBFDF9179
:10027000CF9108958FB7F894EC912E2B2C938FBFCC
:10028000F6CF3FB7F8948091390190913A01A0914F
:100290003B01B0913C0126B5A89B05C02F3F19F04A
:1002A0000196A11DB11D3FBFBA2FA92F982F8827F6
:1002B000BC01CD01620F711D811D911D42E0660FD1
:1002C000771F881F991F4A95D1F708958F929F92A3
:1002D000AF92BF92CF92DF92EF92FF924B015C01FF
:1002E0000E9441016B017C010E9441016C197D0952
:1002F0008E099F09683E734081059105A8F321E0AE
:10030000821A9108A108B10888EEC80E83E0D81EB1
:10031000E11CF11C81149104A104B10429F7FF90A0
:10032000EF90DF90CF90BF90AF909F908F90089507
:10033000CF92DF92EF92FF920F931F93CF93DF93B1
:10034000CDB7DEB7C054D1400FB6F894DEBF0FBEB4
:10035000CDBF2FB7F89480913D0190913E01A091BF
:100360003F01B09140012FBF4091E7015091E8015A
:100370006091E9017091EA018C019D01041B150B4C
:10038000260B370BB901A801403D574061057105A7
:1003900090F48091EF01C05CDE4F0FB6F894DEBFA1
:1003A0000FBECDBFDF91CF911F910F91FF90EF90C6
:1003B000DF90CF9008958093E7019093E801A09398
:1003C000E901B093EA011092E2011092E10110926A
:1003D000E0011092DF011092DE0162E08091E30102
:1003E0000E94100161E070E080E090E00E946601F0
:1003F00061E08091E3010E94100160E08091E301DF
:100400000E94C4008091E4018551823020F58BE286
:1004100091E10197F1F762E08091E3010E94100100
:100420008091F00190E08230910538F0880F991F9B
:10043000880F991F05970197F1F7F89480E00E94C3
:100440008C006F3F7F4F8F4F9F4F61F41092EF01F1
:10045000789480E0A0CF64E170E080E090E00E94BA
:100460006601D9CF81E00E948C006F3F7F4F8F4F94
:100470009F4F61F38E010F5F1F4F6E018FEBC81A04
:100480008EEFD80A780180E00E948C00F70160832B
:1004900071838283938381E00E948C00F7016483DF
:1004A000758386839783F8E0EF0EF11CEC14FD044E
:1004B00051F7789430E020E0F801C080D180E280EC
:1004C000F3804481558166817781FFEFCF16DF0687
:1004D000EF06FF0631F04F3F8FEF580768077807A8
:1004E00019F41092EF01B5CFF90183E0F595E79586
:1004F0008A95E1F7E252FE4F8081880FC416D50637
:10050000E606F70610F180832F5F3F4F085F1F4F0D
:100510002832310589F64091E2012091DE01809177
:10052000DF01280F3327331F8091E001280F311D91
:100530008091E101820F932F911D99274817190689
:1005400081F681E08093EF0126CF8160DCCFAF920E
:10055000BF92CF92DF92EF92FF920F931F93CF93B0
:10056000DF936C017B018B01040F151FEB015E0112
:10057000AE18BF08C017D10759F06991D601ED91A7
:10058000FC910190F081E02DC6010995892B79F746
:10059000C501DF91CF911F910F91FF90EF90DF90F8
:1005A000CF90BF90AF900895FC01538D448D252FBF
:1005B00030E0842F90E0821B930B541710F0CF96FD
:1005C000089501970895FC01918D828D981761F02F
:1005D000A28DAE0FBF2FB11D5D968C91928D9F5F46
:1005E0009F73928F90E008958FEF9FEF0895FC0125
:1005F000918D828D981731F0828DE80FF11D858DD8
:1006000090E008958FEF9FEF0895FC01918D228D6A
:10061000892F90E0805C9F4F821B91098F739927EF
:10062000089581E491E00E94050321E0892B09F4FB
:1006300020E0822F089580E090E0892B29F00E942D
:10064000110381110C9400000895FC01A48DA80FE2
:10065000B92FB11DA35ABF4F2C91848D90E0019604
:100660008F739927848FA689B7892C93A089B18924
:100670008C91837080648C93938D848D981306C0C5
:100680000288F389E02D80818F7D80830895EF9229
:10069000FF920F931F93CF93DF93EC0181E0888F3C
:1006A0009B8D8C8D98131AC0E889F989808185FF0C
:1006B00015C09FB7F894EE89FF896083E889F989AE
:1006C00080818370806480839FBF81E090E0DF91B0
:1006D000CF911F910F91FF90EF900895F62E0B8D03
:1006E00010E00F5F1F4F0F731127E02E8C8D8E11BE
:1006F0000CC00FB607FCFACFE889F989808185FF25
:10070000F5CFCE010E942503F1CFEB8DEC0FFD2F2D
:10071000F11DE35AFF4FF0829FB7F8940B8FEA89DF
:10072000FB8980818062CFCFCF93DF93EC01888DEE
:100730008823B9F0AA89BB89E889F9898C9185FD5C
:1007400003C0808186FD0DC00FB607FCF7CF8C91EA
:1007500085FFF2CF808185FFEDCFCE010E9425037A
:10076000E9CFDF91CF9108951F920F920FB60F92AC
:1007700011242F933F938F939F93AF93BF938091B7
:100780003D0190913E01A0913F01B0914001309117
:10079000380123E0230F2D3758F50196A11DB11D17
:1007A0002093380180933D0190933E01A0933F0137
:1007B000B09340018091390190913A01A0913B01A1
:1007C000B0913C010196A11DB11D80933901909318
:1007D0003A01A0933B01B0933C01BF91AF919F912F
:1007E0008F913F912F910F900FBE0F901F901895F2
:1007F00026E8230F0296A11DB11DD2CF1F920F92A2
:100800000FB60F9211242F933F934F935F936F93E3
:100810007F938F939F93AF93BF93EF93FF9381E465
:1008200091E00E942503FF91EF91BF91AF919F91BD
:100830008F917F916F915F914F913F912F910F9089
:100840000FBE0F901F9018951F920F920FB60F9228
:1008500011242F938F939F93EF93FF93E091510176
:10086000F09152018081E0915701F091580182FD91
:100870001BC0908180915A018F5F8F7320915B0123
:10088000821741F0E0915A01F0E0EF5BFE4F958F47
:1008900080935A01FF91EF919F918F912F910F902B
:1008A0000FBE0F901F9018958081F4CFE1E4F1E026
:1008B0001382128288EE93E0A0E0B0E084839583F7
:1008C000A683B78384E091E09183808385EC90E0F8
:1008D0009587848784EC90E09787868780EC90E00A
:1008E000918B808B81EC90E0938B828B82EC90E0FB
:1008F000958B848B86EC90E0978B868B118E128E75
:10090000138E148EAEEDB1E082E015968C931597A0
:1009100086E116968C931697E0EBF0E0E49117963B
:10092000EC931797ECE9F0E0E4911896EC931897A4
:1009300040E85EE360E070E01D964D935D936D933B
:100940007C9350970895789484B5826084BD84B573
:10095000816084BD85B5826085BD85B5816085BDBA
:1009600080916E00816080936E0010928100809172
:1009700081008260809381008091810081608093FA
:100980008100809180008160809380008091B1001F
:1009900084608093B1008091B00081608093B0004A
:1009A00080917A00846080937A0080917A008260DE
:1009B00080937A0080917A00816080937A008091A0
:1009C0007A00806880937A001092C10061E086E02E
:1009D0000E941001E0915101F091520182E0808368
:1009E000E0914D01F0914E011082E0914F01F091A4
:1009F00050018FEC808310925901E0915501F091E4
:100A0000560186E08083E0915301F091540180818A
:100A100080618083E0915301F0915401808188606E
:100A20008083E0915301F09154018081806880833C
:100A3000E0915301F091540180818F7D808362E0C9
:100A40008091E3010E9410012FB7F89480913D013D
:100A500090913E01A0913F01B09140012FBF805D78
:100A60009740A109B1098093E7019093E801A09311
:100A7000E901B093EA0187E38093F00160ED77E04C
:100A800080E090E00E94660102E810E0C0E0D0E063
:100A90000E949801882309F45BC08091E4018C30A6
:100AA00009F47FC048F48B3001F1C12CD12C90ECBB
:100AB000E92E9FE7F92E43C085518230B0F7B09000
:100AC000E0016B2D70E0762F662766277F77809197
:100AD000E101682B90E080E00E94A2072DEC3CEC45
:100AE0004CEC5DE30E94590878C06091E00170E031
:100AF00090E080E00E94A2074B015C01F090E101D0
:100B0000F7FE0AC0AC019B0160E070E080E89FEB5B
:100B10000E9488064B015C016F2D6F7070E090E0C1
:100B200080E00E94A4072DEC3CEC4CEC5DE30E94BD
:100B30005908A50194010E9489066B017C01A70157
:100B40009601C701B6010E94C608882309F44EC069
:100B500061E086E00E94100160E086E00E94C4002F
:100B600041E250E062E171E081E491E00E94A7027D
:100B700042E050E064E371E081E491E00E94A7026A
:100B800060ED77E080E090E00E946601209709F434
:100B90007FCF0E941103882309F47ACF0E940000BE
:100BA00077CFB090E0016B2D70E090E080E00E9484
:100BB000A2076B017C016091E1016F7070E090E031
:100BC00080E00E94A4072DEC3CEC4CEC5DE30E941D
:100BD0005908A70196010E9489066B017C01B7FEA6
:100BE000AECFF7FAF094F7F8F094A9CF20E030E018
:100BF00040E251E4C701B6010E94890620E030E0DE
:100C000048E452E40E94FA066B017C0120E030E0E7
:100C1000A9010E94F50687FD28C020E030E040E8E9
:100C20005FE3C701B6010E945408181614F120E0D2
:100C300030E04FE753E4C701B6010E94590820E0B5
:100C400030E040E05FE30E9489060E946C076B0180
:100C50005B0161E086E00E941001C114D10481F4BF
:100C600060E086E00E94C4008BCFC12CD12C7601BD
:100C7000DECFC12CD12C80E8E82E8FE3F82ED7CF21
:100C80008FEFC816D10411F461E0EBCFF801849125
:100C9000833021F148F48130B9F08230D1F0F0E8AE
:100CA000AF16B1048CF7DCCF873011F1883041F1F9
:100CB0008430A9F780918000806280938000D09278
:100CC0008B00C0928A005CCF84B5806884BDC7BCAD
:100CD00057CF84B5806284BDC8BC52CF809180005C
:100CE000806880938000D0928900C092880048CFAD
:100CF0008091B00080688093B000C092B30040CF74
:100D00008091B00080628093B000C092B40038CF70
:100D10005058BB27AA270E94A0060C941A080E94CC
:100D20000C0838F00E94130820F039F49F3F19F4A2
:100D300026F40C9409080EF4E095E7FB0C940308E4
:100D4000E92F0E942B0858F3BA176207730784072C
:100D5000950720F079F4A6F50C944D080EF4E09573
:100D60000B2EBA2FA02D0B01B90190010C01CA0165
:100D7000A0011124FF27591B99F0593F50F4503E10
:100D800068F11A16F040A22F232F342F4427585F02
:100D9000F3CF469537952795A795F0405395C9F71A
:100DA0007EF41F16BA0B620B730B840BBAF09150D2
:100DB000A1F0FF0FBB1F661F771F881FC2F70EC071
:100DC000BA0F621F731F841F48F487957795679544
:100DD000B795F7959E3F08F0B0CF9395880F08F030
:100DE0009927EE0F9795879508950E94DF0708F4DD
:100DF00081E008950E940E070C941A080E941308BF
:100E000058F00E940C0840F029F45F3F29F00C9440
:100E1000030851110C944E080C9409080E942B08E9
:100E200068F39923B1F3552391F3951B550BBB2719
:100E3000AA2762177307840738F09F5F5F4F220F5E
:100E4000331F441FAA1FA9F335D00E2E3AF0E0E855
:100E500032D091505040E695001CCAF72BD0FE2F9F
:100E600029D0660F771F881FBB1F26173707480733
:100E7000AB07B0E809F0BB0B802DBF01FF279358EB
:100E80005F4F3AF09E3F510578F00C9403080C94A4
:100E90004E085F3FE4F3983ED4F3869577956795C7
:100EA000B795F7959F5FC9F7880F911D9695879520
:100EB00097F90895E1E0660F771F881FBB1F62173F
:100EC00073078407BA0720F0621B730B840BBA0BFD
:100ED000EE1F88F7E09508950E9473076894B1119A
:100EE0000C944E0808950E94330888F09F5798F09C
:100EF000B92F9927B751B0F0E1F0660F771F881F1F
:100F0000991F1AF0BA95C9F714C0B13091F00E9438
:100F10004D08B1E008950C944D08672F782F88276D
:100F2000B85F39F0B93FCCF3869577956795B3955F
:100F3000D9F73EF490958095709561957F4F8F4FCE
:100F40009F4F0895E89409C097FB3EF490958095D3
:100F5000709561957F4F8F4F9F4F9923A9F0F92F7F
:100F600096E9BB279395F695879577956795B795FD
:100F7000F111F8CFFAF4BB0F11F460FF1BC06F5FE3
:100F80007F4F8F4F9F4F16C0882311F096E911C0F5
:100F9000772321F09EE8872F762F05C0662371F016
:100FA00096E8862F70E060E02AF09A95660F771F2A
:100FB000881FDAF7880F9695879597F90895990F06
:100FC0000008550FAA0BE0E8FEEF16161706E80713
:100FD000F907C0F012161306E407F50798F0621B34
:100FE000730B840B950B39F40A2661F0232B242B09
:100FF000252B21F408950A2609F4A140A6958FEF28
:10100000811D811D089597F99F6780E870E060E079
:1010100008959FEF80EC089500240A941616170691
:1010200018060906089500240A94121613061406D9
:1010300005060895092E0394000C11F4882352F03C
:10104000BB0F40F4BF2B11F460FF04C06F5F7F4FF4
:101050008F4F9F4F089557FD9058440F551F59F0DB
:101060005F3F71F04795880F97FB991F61F09F3F95
:1010700079F087950895121613061406551FF2CFBE
:101080004695F1DF08C0161617061806991FF1CF0E
:1010900086957105610508940895E894BB27662735
:1010A0007727CB0197F908950E94DF0708F48FEFA7
:1010B00008950E946C080C941A080E940C0838F0DD
:1010C0000E94130820F0952311F00C9403080C944F
:1010D000090811240C944E080E942B0870F3959F68
:1010E000C1F3950F50E0551F629FF001729FBB271F
:1010F000F00DB11D639FAA27F00DB11DAA1F649FBB
:101100006627B00DA11D661F829F2227B00DA11D6D
:10111000621F739FB00DA11D621F839FA00D611DF3
:10112000221F749F3327A00D611D231F849F600D14
:10113000211D822F762F6A2F11249F5750409AF03D
:10114000F1F088234AF0EE0FFF1FBB1F661F771FC9
:10115000881F91505040A9F79E3F510580F00C9494
:1011600003080C944E085F3FE4F3983ED4F3869551
:1011700077956795B795F795E7959F5FC1F7FE2B34
:10118000880F911D9695879597F908950E94DF071E
:10119000880B990B0895EE0FFF1F0590F491E02D39
:1011A0000994F894FFCF000000004703A702D4027F
:1011B00094030503E302F70253656E736F7266656D
:1011C000686C65723A20416E7363686C7565737301
:0E11D00065207072756566656E000D0A000080
:107E0000112484B714BE81FFF0D085E080938100F7
:107E100082E08093C00088E18093C10086E0809377
:107E2000C20080E18093C4008EE0C9D0259A86E02C
:107E300020E33CEF91E0309385002093840096BBD3
:107E4000B09BFECF1D9AA8958150A9F7CC24DD24C4
:107E500088248394B5E0AB2EA1E19A2EF3E0BF2EE7
:107E6000A2D0813461F49FD0082FAFD0023811F036
:107E7000013811F484E001C083E08DD089C08234E0
:107E800011F484E103C0853419F485E0A6D080C0E4
:107E9000853579F488D0E82EFF2485D0082F10E0AE
:107EA000102F00270E291F29000F111F8ED06801E7
:107EB0006FC0863521F484E090D080E0DECF843638
:107EC00009F040C070D06FD0082F6DD080E0C81688
:107ED00080E7D80618F4F601B7BEE895C0E0D1E017
:107EE00062D089930C17E1F7F0E0CF16F0E7DF06D8
:107EF00018F0F601B7BEE89568D007B600FCFDCFD4
:107F0000A601A0E0B1E02C9130E011968C91119780
:107F100090E0982F8827822B932B1296FA010C0160
:107F200087BEE89511244E5F5F4FF1E0A038BF0790
:107F300051F7F601A7BEE89507B600FCFDCF97BE46
:107F4000E89526C08437B1F42ED02DD0F82E2BD052
:107F50003CD0F601EF2C8F010F5F1F4F84911BD097
:107F6000EA94F801C1F70894C11CD11CFA94CF0C13
:107F7000D11C0EC0853739F428D08EE10CD085E9AC
:107F80000AD08FE07ACF813511F488E018D01DD067
:107F900080E101D065CF982F8091C00085FFFCCF94
:107FA0009093C60008958091C00087FFFCCF809118
:107FB000C00084FD01C0A8958091C6000895E0E648
:107FC000F0E098E1908380830895EDDF803219F02E
:107FD00088E0F5DFFFCF84E1DECF1F93182FE3DFCA
:107FE0001150E9F7F2DF1F91089580E0E8DFEE27F6
:047FF000FF270994CA
:027FFE00040479
:00000001FF
