:100000000C9462000C948A000C948A000C948A0070
:100010000C948A000C948A000C948A000C948A0038
:100020000C948A000C948A000C948A000C948A0028
:100030000C948A000C948A000C948A000C948A0018
:100040000C944A050C948A000C94BA050C949405FF
:100050000C948A000C948A000C948A000C948A00F8
:100060000C94EC050C948A0000000000240027008A
:100070002A0000000000250028002B0000000008D6
:10008000000201000003040700000000000000005F
:1000900000000000230026002900040404040404D6
:1000A0000404020202020202030303030303010227
:1000B00004081020408001020408102001020408F6
:1000C00010200B0711241FBECFEFD8E0DEBFCDBF3D
:1000D00011E0A0E0B1E0ECEFF8E102C005900D9274
:1000E000A435B107D9F722E0A4E5B1E001C01D9223
:1000F000A33BB207E1F710E0C2E6D0E004C02197CD
:10010000FE010E94760CC136D107C9F70E94640730
:100110000C947C0C0C940000CF92DF92EF92FF9233
:10012000CF93DF93B091A702A0E08111AB2F809114
:10013000A80290E0880F991FAC0140575F4FC09014
:10014000AD02D090AE02E090AF02F090B00230E08D
:1001500020E0FA01C591D491E881B90190E080E0F6
:10016000EB23EA130AC02F5F3F4F6C157D058E0508
:100170009F0578F36FEF7FEFCB01DF91CF91FF9079
:10018000EF90DF90CF90089590E0FC01E458FF4F8E
:100190002491FC01E255FF4F3491FC01E656FF4FDC
:1001A000E491EE23C9F0222339F0233001F1A8F4C1
:1001B000213019F1223029F1F0E0EE0FFF1FEE5847
:1001C000FF4FA591B4918FB7F894EC91611126C0BF
:1001D00030953E233C938FBF08952730A9F02830F7
:1001E000C9F0243049F7809180008F7D03C0809151
:1001F00080008F7780938000DFCF84B58F7784BDB8
:10020000DBCF84B58F7DFBCF8091B0008F7780935B
:10021000B000D2CF8091B0008F7DF9CF3E2BDACFE6
:10022000CF93DF9390E0FC01E255FF4F2491865677
:100230009F4FFC0184918823D1F090E0880F991F93
:10024000FC01E859FF4FA591B491FC01EE58FF4F16
:10025000C591D491623071F49FB7F8943C91822F8C
:10026000809583238C93E8812E2B28839FBFDF9179
:10027000CF9108958FB7F894EC912E2B2C938FBFCC
:10028000F6CF3FB7F8948091EF019091F001A091E3
:10029000F101B091F20126B5A89B05C02F3F19F0DE
:1002A0000196A11DB11D3FBFBA2FA92F982F8827F6
:1002B000BC01CD01620F711D811D911D42E0660FD1
:1002C000771F881F991F4A95D1F708958F929F92A3
:1002D000AF92BF92CF92DF92EF92FF924B015C01FF
:1002E0000E9441016B017C010E9441016C197D0952
:1002F0008E099F09683E734081059105A8F321E0AE
:10030000821A9108A108B10888EEC80E83E0D81EB1
:10031000E11CF11C81149104A104B10429F7FF90A0
:10032000EF90DF90CF90BF90AF909F908F90089507
:10033000CF92DF92EF92FF920F931F93CF93DF93B1
:10034000CDB7DEB7C054D1400FB6F894DEBF0FBEB4
:10035000CDBF2FB7F8948091F3019091F401A09153
:10036000F501B091F6012FBF4091A9025091AA0268
:100370006091AB027091AC028C019D01041B150BC6
:10038000260B370BB901A801403D574061057105A7
:1003900090F48091B102C05CDE4F0FB6F894DEBFDE
:1003A0000FBECDBFDF91CF911F910F91FF90EF90C6
:1003B000DF90CF9008958093A9029093AA02A09312
:1003C000AB02B093AC021092A4021092A30210925E
:1003D000A2021092A1021092A00262E08091A502F6
:1003E0000E94100161E070E080E090E00E946601F0
:1003F00061E08091A5020E94100160E08091A50259
:100400000E94C4008091A6028551823020F58BE2C3
:1004100091E10197F1F762E08091A5020E9410013D
:100420008091B20290E08230910538F0880F991FD8
:10043000880F991F05970197F1F7F89480E00E94C3
:100440008C006F3F7F4F8F4F9F4F61F41092B1022E
:10045000789480E0A0CF64E170E080E090E00E94BA
:100460006601D9CF81E00E948C006F3F7F4F8F4F94
:100470009F4F61F38E010F5F1F4F6E018FEBC81A04
:100480008EEFD80A780180E00E948C00F70160832B
:1004900071838283938381E00E948C00F7016483DF
:1004A000758386839783F8E0EF0EF11CEC14FD044E
:1004B00051F7789430E020E0F801C080D180E280EC
:1004C000F3804481558166817781FFEFCF16DF0687
:1004D000EF06FF0631F04F3F8FEF580768077807A8
:1004E00019F41092B102B5CFF90183E0F595E795C3
:1004F0008A95E1F7E056FD4F8081880FC416D50636
:10050000E606F70610F180832F5F3F4F085F1F4F0D
:100510002832310589F64091A4022091A0028091F1
:10052000A102280F3327331F8091A202280F311D0B
:100530008091A302820F932F911D992748171906C6
:1005400081F681E08093B10226CF8160DCCFE0911B
:10055000EC01F091ED01309729F01092E901109231
:10056000E801099408950895AF92BF92CF92DF9267
:10057000EF92FF920F931F93CF93DF936C017B0158
:100580008B01040F151FEB015E01AE18BF08C017E9
:10059000D10759F06991D601ED91FC910190F0815C
:1005A000E02DC6010995892B79F7C501DF91CF911F
:1005B0001F910F91FF90EF90DF90CF90BF90AF9081
:1005C0000895FC01538D448D252F30E0842F90E059
:1005D000821B930B541710F0CF960895019708953E
:1005E000FC01918D828D981761F0A28DAE0FBF2F07
:1005F000B11D5D968C91928D9F5F9F73928F90E05D
:1006000008958FEF9FEF0895FC01918D828D9817CB
:1006100031F0828DE80FF11D858D90E008958FEF08
:100620009FEF0895FC01918D228D892F90E0805CD1
:100630009F4F821B91098F739927089587EF91E04F
:100640000E94120321E0892B09F420E0822F0895F3
:1006500080E090E0892B29F00E941E0381110C9408
:1006600000000895FC01A48DA80FB92FB11DA35A55
:10067000BF4F2C91848D90E001968F739927848FC2
:10068000A689B7892C93A089B1898C9183708064E5
:100690008C93938D848D981306C00288F389E02D86
:1006A00080818F7D80830895EF92FF920F931F9337
:1006B000CF93DF93EC0181E0888F9B8D8C8D981315
:1006C0001AC0E889F989808185FF15C09FB7F89421
:1006D000EE89FF896083E889F9898081837080646D
:1006E00080839FBF81E090E0DF91CF911F910F91B8
:1006F000FF90EF900895F62E0B8D10E00F5F1F4FC7
:100700000F731127E02E8C8D8E110CC00FB607FCD5
:10071000FACFE889F989808185FFF5CFCE010E9463
:100720003203F1CFEB8DEC0FFD2FF11DE35AFF4F9C
:10073000F0829FB7F8940B8FEA89FB8980818062F1
:10074000CFCFCF93DF93EC01888D8823B9F0AA89AE
:10075000BB89E889F9898C9185FD03C0808186FD7C
:100760000DC00FB607FCF7CF8C9185FFF2CF8081CB
:1007700085FFEDCFCE010E943203E9CFDF91CF910B
:10078000089520919A01260F3327331F2132310516
:10079000ECF42091BE01FC0190E080E0243069F08F
:1007A00082E00895A0919A012191AC0146585E4FD4
:1007B000A40FB52FB11D2C930196861798F3809145
:1007C0009A01680F60939A0180E0089581E008958E
:1007D0001092BE0181E08093C0011092BF0161E0E0
:1007E00082E10E94C40061E083E10E94C400E9EB61
:1007F000F0E080818E7F808380818D7F808388E49C
:100800008093B80085E48093BC0008950895E0913A
:10081000EB018091EA01E81730F4F0E0EC5AFE4F6A
:10082000808190E008958FEF9FEF08959091EB0104
:100830008091EA012FEF3FEF981748F4E92FF0E09D
:10084000EC5AFE4F208130E09F5F9093EB01C9018D
:1008500008958091EA019091EB01891B990B08950D
:10086000CF93DF93CB01EA01642F0E94C103CE0135
:10087000DF91CF910895CF93DF9300D01F92CDB732
:10088000DEB7E0E0F1E08081898381818A83828123
:100890008B8343E050E0BE016F5F7F4F84E992E0BD
:1008A0000E9430040F900F900F90DF91CF91089528
:1008B000CF93DF931F92CDB7DEB7698361E0CE019E
:1008C00001960E94C10381E090E00F90DF91CF91EB
:1008D000089590E080E00895FC0101900020E9F780
:1008E0003197AF01481B590BBC0187EF91E00C9485
:1008F000B4028F929F92AF92BF920F931F93CF93A8
:10090000DF93CDB7DEB7A1970FB6F894DEBF0FBE69
:10091000CDBF19A2423008F44AE08E010F5D1F4F8F
:10092000842E912CB12CA12CA50194010E94540C71
:10093000E62FB901CA01EA30F4F4E05DD801EE9384
:100940008D01232B242B252B79F790E080E0109745
:1009500019F0CD010E946C04A1960FB6F894DEBF89
:100960000FBECDBFDF91CF911F910F91BF90AF9080
:100970009F908F900895E95CE1CF1F93CF93DF9311
:10098000F894E0E0F1E01081D181C281789487E2AF
:1009900091E00E946C04612F70E090E080E04AE0FA
:1009A0000E94790484E391E00E946C046D2F70E052
:1009B00090E080E04AE00E94790484E391E00E94A4
:1009C0006C046C2F70E090E080E04AE00E947904B3
:1009D00087E391E00E946C0489E391E0DF91CF917D
:1009E0001F910C946C04CF93DF9385ED8093BC0032
:1009F0008091760190917701A0917801B091790171
:100A00000796A11DB11D23E0B695A79597958795EB
:100A10002A95D1F72091BC0024FD03C01092BE019D
:100A200036C04091760150917701609178017091C4
:100A30007901452B462B472B69F30097A105B1059A
:100A400041F02AE22A95F1F700C00197A109B10906
:100A5000E1CF8091750191E0909374018823B9F002
:100A6000C091B800D091BA008091BC008A7B80937D
:100A7000BC0060E082E10E94C40060E083E10E946B
:100A8000C4000E94E803D093BA00C093B800DF917D
:100A9000CF9108951F920F920FB60F9211242F93AA
:100AA0003F938F939F93AF93BF938091F301909166
:100AB000F401A091F501B091F6013091EE0123E02F
:100AC000230F2D3758F50196A11DB11D2093EE017E
:100AD0008093F3019093F401A093F501B093F60194
:100AE0008091EF019091F001A091F101B091F2019C
:100AF0000196A11DB11D8093EF019093F001A09389
:100B0000F101B093F201BF91AF919F918F913F910D
:100B10002F910F900FBE0F901F90189526E8230F6E
:100B20000296A11DB11DD2CF1F920F920FB60F9248
:100B300011242F933F934F935F936F937F938F93E2
:100B40009F93AF93BF93EF93FF9387EF91E00E9442
:100B50003203FF91EF91BF91AF919F918F917F9160
:100B60006F915F914F913F912F910F900FBE0F901A
:100B70001F9018951F920F920FB60F9211242F936A
:100B80008F939F93EF93FF93E0910702F0910802F8
:100B90008081E0910D02F0910E0282FD1BC09081D8
:100BA000809110028F5F8F7320911102821741F0A4
:100BB000E0911002F0E0E950FE4F958F8093100213
:100BC000FF91EF919F918F912F910F900FBE0F90FA
:100BD0001F9018958081F4CF1F920F920FB60F923D
:100BE00011242F933F934F935F936F937F938F9332
:100BF0009F93AF93BF93EF93FF938091B900887F4A
:100C0000803609F44AC0F0F5883209F4A7C018F517
:100C1000803109F49BC0B8F4882309F4F9C0883006
:100C200009F494C0FF91EF91BF91AF919F918F9183
:100C30007F916F915F914F913F912F910F900FBED8
:100C40000F901F901895883109F488C0803251F7B1
:100C50008093BD0114C0803409F49DC040F48033FA
:100C6000B9F38833F9F68093BD0185ECB0C08035C7
:100C700009F485C0883509F496C0883499F60E9435
:100C8000F304D0CF883909F48CC038F5883729F0BF
:100C900050F4883611F0803729F683E08093BE0146
:100CA0001092BC0157C0883809F47BC0803919F014
:100CB000803809F0B7CF8091BC01803208F071C054
:100CC000E091BC0181E08E0F8093BC018091BB005C
:100CD000F0E0E456FE4F80833DC0803B39F0E0F405
:100CE000803A09F479C0883A09F09CCF84E0809377
:100CF000BE0110929B0110929A01E091E601F091E1
:100D0000E701099580919A0181110FC081E08093DC
:100D10009A0110927A0109C0803C09F4A6CF883C60
:100D200009F4A3CF883B09F07DCFE0919B0181E0DE
:100D30008E0F80939B01F0E0E658FE4F80818093F8
:100D4000BB0090919B0180919A0129C08091E301A1
:100D50008093BB0085EC8093BC0064CF9091E2014E
:100D60008091E101981758F5E091E20181E08E0F42
:100D70008093E201F0E0EF53FE4F8081E9CFE091F4
:100D8000E20181E08E0F8093E2018091BB00F0E0F0
:100D9000EF53FE4F80839091E2018091E10198171B
:100DA000C8F285E8D8CFE091E20181E08E0F809310
:100DB000E2018091BB00F0E0EF53FE4F8083809111
:100DC000C00181115CCF81E08093BF0184EA8093F0
:100DD000BC001092BE0126CF85EC8093BC0010921F
:100DE000BE018091BC01803230F4E091BC01F0E0A2
:100DF000E456FE4F10826091BC0170E0E091E40186
:100E0000F091E5018CE991E009951092BC010ACFBF
:100E10001092BD0134CFE7EFF1E01382128288EE29
:100E200093E0A0E0B0E084839583A683B78327E0B6
:100E300031E03183208325EC30E03587248724ECB2
:100E400030E03787268720EC30E0318B208B21EC97
:100E500030E0338B228B22EC30E0358B248B26EC78
:100E600030E0378B268B118E128E138E148EE4E9B0
:100E7000F2E01382128284839583A683B78389E18B
:100E800091E091838083A0EAB2E082E015968C9392
:100E9000159786E116968C931697E0EBF0E0E491B7
:100EA0001796EC931797ECE9F0E0E4911896EC9321
:100EB000189740E85EE360E070E01D964D935D9307
:100EC0006D937C9350970895789484B5826084BD27
:100ED00084B5816084BD85B5826085BD85B581603E
:100EE00085BD80916E00816080936E0010928100BC
:100EF0008091810082608093810080918100816077
:100F00008093810080918000816080938000809137
:100F1000B10084608093B1008091B00081608093C3
:100F2000B00080917A00846080937A0080917A008A
:100F3000826080937A0080917A00816080937A0049
:100F400080917A00806880937A001092C10061E0FD
:100F500086E00E941001E0910702F091080282E011
:100F60008083E0910302F09104021082E091050277
:100F7000F09106028FEC808310920F02E0910B0239
:100F8000F0910C0286E08083E0910902F0910A0260
:100F9000808180618083E0910902F0910A02808162
:100FA00088608083E0910902F0910A028081806864
:100FB0008083E0910902F0910A0280818F7D808315
:100FC00062E08091A5020E9410012FB7F8948091F1
:100FD000F3019091F401A091F501B091F6012FBFBA
:100FE000805D9740A109B1098093A9029093AA025C
:100FF000A093AB02B093AC0287E38093B20210924D
:10100000EB011092EA011092E9011092E8010E94AE
:10101000E80387EA92E09093E7018093E60183EB8F
:1010200092E09093E5018093E40182E28093BA001C
:101030008BE394E09093ED018093EC0160ED77E019
:1010400080E090E00E94660102E810E0C0E0D0E09D
:101050000E949801882309F45BC08091A6028C301D
:1010600009F482C048F48B3001F1C12CD12C90ECF2
:10107000E92E9FE7F92E43C085518230B0F7B0903A
:10108000A2026B2D70E0762F662766277F7780910E
:10109000A302682B90E080E00E942B0B2DEC3CEC2F
:1010A0004CEC5DE30E94E20B7BC06091A20270E019
:1010B00090E080E00E942B0B2B013C01F090A302FA
:1010C000F7FE0AC0AC019B0160E070E080E89FEB96
:1010D0000E94110A2B013C016F2D6F7070E090E0AF
:1010E00080E00E942D0B2DEC3CEC4CEC5DE30E946B
:1010F000E20BA30192010E94120A6B017C01A7017D
:101100009601C701B6010E944F0C882309F451C013
:1011100061E086E00E94100160E086E00E94C40069
:10112000F894109200011092010181E08093020175
:1011300078940E94BD048CE391E00E946C0489E3E2
:1011400091E00E946C0460ED77E080E090E00E9406
:101150006601209709F47CCF0E941E03882309F4BE
:1011600077CF0E94000074CFB090A2026B2D70E088
:1011700090E080E00E942B0B6B017C016091A30248
:101180006F7070E090E080E00E942D0B2DEC3CEC45
:101190004CEC5DE30E94E20BA70196010E94120A4B
:1011A0006B017C01B7FEABCFF7FAF094F7F8F0943F
:1011B000A6CF20E030E040E251E4C701B6010E9432
:1011C000120A20E030E048E452E40E94830A2B0136
:1011D0003C0120E030E0A9010E947E0A87FD6EC03C
:1011E00020E030E040E85FE3C301B2010E94DD0B84
:1011F00018160CF467C020E030E04FE753E4C30159
:10120000B2010E94E20B20E030E040E05FE30E9488
:10121000120A0E94F50A2B015B0161E086E00E9440
:1012200010014114510409F054C060E086E00E94AE
:10123000C40020E030E040E251E4C701B6010E9462
:10124000E20B2B013C0120E030E0A9010E94DD0B04
:1012500020E030E040E05FE387FD83C0C301B201DE
:101260000E94120A0E94F50AF8946093000170939C
:1012700001011092020178940E94BD0489E491E07A
:101280000E946C0426013701E89477F82FEF3FEFB6
:101290004FE75FE7C301B2010E944F0C811166C0A6
:1012A0002FEF3FEF4FE75FE7C301B2010E947E0AD5
:1012B00018160CF05BC08CE491E03FCF412C512C10
:1012C000320199CF412C512C80E8682E8FE3782E83
:1012D00092CF8FEF4816510411F461E0A7CFF801C7
:1012E0008491833021F148F48130B9F08230D1F01B
:1012F000F0E8AF16B1048CF798CF873011F1883041
:1013000041F18430A9F78091800080628093800051
:1013100050928B0040928A008CCF84B5806884BD47
:1013200047BC87CF84B5806284BD48BC82CF8091A2
:1013300080008068809380005092890040928800ED
:1013400078CF8091B00080688093B0004092B30065
:1013500070CF8091B00080628093B0004092B40062
:1013600068CFC301B2010E94110A7CCF2FEF3FEF7B
:101370004FE75FE4C701B6010E94DD0B18161CF4AD
:1013800080E591E0DACE2FEF3FEF4FE75FECC7014A
:10139000B6010E947E0A87FDF3CF20E030E0A9016C
:1013A000C701B6010E947E0A87FF09C06DE287EF80
:1013B00091E00E945403F7FAF094F7F8F0942DECC2
:1013C0003CEC4CE45DE3C701B6010E94120A2B011C
:1013D0003C010E94FC0A6B017C010E942B0B9B01CB
:1013E000AC01C301B2010E94110A2B013C014AE089
:1013F000C701B6010E9479046EE287EF91E00E9476
:10140000540320E030E040E251E4C301B2010E9405
:10141000E20B0E94FC0A90E080E04AE00E9479041E
:101420008ECE5058BB27AA270E94290A0C94A30BE2
:101430000E94950B38F00E949C0B20F039F49F3FDE
:1014400019F426F40C94920B0EF4E095E7FB0C943F
:101450008C0BE92F0E94B40B58F3BA17620773077D
:101460008407950720F079F4A6F50C94D60B0EF4BA
:10147000E0950B2EBA2FA02D0B01B90190010C01A4
:10148000CA01A0011124FF27591B99F0593F50F4BC
:10149000503E68F11A16F040A22F232F342F442714
:1014A000585FF3CF469537952795A795F04053950C
:1014B000C9F77EF41F16BA0B620B730B840BBAF0DC
:1014C0009150A1F0FF0FBB1F661F771F881FC2F747
:1014D0000EC0BA0F621F731F841F48F4879577955B
:1014E0006795B795F7959E3F08F0B0CF9395880F15
:1014F00008F09927EE0F9795879508950E94680B3D
:1015000008F481E008950E94970A0C94A30B0E94AE
:101510009C0B58F00E94950B40F029F45F3F29F096
:101520000C948C0B51110C94D70B0C94920B0E94C1
:10153000B40B68F39923B1F3552391F3951B550B25
:10154000BB27AA2762177307840738F09F5F5F4F96
:10155000220F331F441FAA1FA9F335D00E2E3AF0D5
:10156000E0E832D091505040E695001CCAF72BD0ED
:10157000FE2F29D0660F771F881FBB1F261737073E
:101580004807AB07B0E809F0BB0B802DBF01FF2770
:1015900093585F4F3AF09E3F510578F00C948C0BB6
:1015A0000C94D70B5F3FE4F3983ED4F38695779580
:1015B0006795B795F7959F5FC9F7880F911D969529
:1015C000879597F90895E1E0660F771F881FBB1F85
:1015D000621773078407BA0720F0621B730B840B32
:1015E000BA0BEE1F88F7E09508950E94FC0A6894F4
:1015F000B1110C94D70B08950E94BC0B88F09F5733
:1016000098F0B92F9927B751B0F0E1F0660F771F26
:10161000881F991F1AF0BA95C9F714C0B13091F01C
:101620000E94D60BB1E008950C94D60B672F782F4B
:101630008827B85F39F0B93FCCF3869577956795E1
:10164000B395D9F73EF490958095709561957F4F4D
:101650008F4F9F4F0895E89409C097FB3EF49095F3
:101660008095709561957F4F8F4F9F4F9923A9F07B
:10167000F92F96E9BB279395F6958795779567950A
:10168000B795F111F8CFFAF4BB0F11F460FF1BC04E
:101690006F5F7F4F8F4F9F4F16C0882311F096E9E1
:1016A00011C0772321F09EE8872F762F05C066238F
:1016B00071F096E8862F70E060E02AF09A95660F48
:1016C000771F881FDAF7880F9695879597F9089501
:1016D000990F0008550FAA0BE0E8FEEF1616170643
:1016E000E807F907C0F012161306E407F50798F0AB
:1016F000621B730B840B950B39F40A2661F0232BC4
:10170000242B252B21F408950A2609F4A140A6953F
:101710008FEF811D811D089597F99F6780E870E024
:1017200060E008959FEF80EC089500240A94161657
:10173000170618060906089500240A9412161306BF
:10174000140605060895092E0394000C11F488234D
:1017500052F0BB0F40F4BF2B11F460FF04C06F5F69
:101760007F4F8F4F9F4F089557FD9058440F551F3F
:1017700059F05F3F71F04795880F97FB991F61F013
:101780009F3F79F087950895121613061406551F8A
:10179000F2CF4695F1DF08C0161617061806991FF6
:1017A000F1CF86957105610508940895E894BB27EB
:1017B00066277727CB0197F908950E94680B08F4F4
:1017C0008FEF08950E94F50B0C94A30B0E94950BCC
:1017D00038F00E949C0B20F0952311F00C948C0B98
:1017E0000C94920B11240C94D70B0E94B40B70F341
:1017F000959FC1F3950F50E0551F629FF001729FB6
:10180000BB27F00DB11D639FAA27F00DB11DAA1FC4
:10181000649F6627B00DA11D661F829F2227B00D11
:10182000A11D621F739FB00DA11D621F839FA00D9C
:10183000611D221F749F3327A00D611D231F849FEC
:10184000600D211D822F762F6A2F11249F57504043
:101850009AF0F1F088234AF0EE0FFF1FBB1F661FBE
:10186000771F881F91505040A9F79E3F510580F087
:101870000C948C0B0C94D70B5F3FE4F3983ED4F39D
:10188000869577956795B795F795E7959F5FC1F72B
:10189000FE2B880F911D9695879597F908950E94C4
:1018A000680B880B990B0895A1E21A2EAA1BBB1B8B
:1018B000FD010DC0AA1FBB1FEE1FFF1FA217B3071C
:1018C000E407F50720F0A21BB30BE40BF50B661F32
:1018D000771F881F991F1A9469F7609570958095F6
:1018E00090959B01AC01BD01CF010895EE0FFF1F44
:0C18F0000590F491E02D0994F894FFCFCE
:1018FC00000002000000005403B402E102A1031234
:10190C0003F00204030000000058043004690406CC
:10191C00042904160407044932432D50616B657485
:10192C003A205B002C20005D000D0A004552523B12
:10193C00423B53454E534F5200423B00696E66008A
:04194C006F7666004C
:00000001FF
