:100000000C945D000C9485000C9485000C94850084
:100010000C9485000C9485000C9485000C9485004C
:100020000C9485000C9485000C9485000C946A0750
:100030000C9485000C9485000C9485000C9485002C
:100040000C94A9050C9485000C9419060C94F305E6
:100050000C9485000C9485000C9485000C9485000C
:100060000C944B060C94850000000008000201006F
:100070000003040700000000000000000000000072
:10008000250028002B0000000000240027002A0083
:10009000040404040404040402020202020203032E
:1000A0000303030301020408102040800102040836
:1000B0001020010204081020260811241FBECFEFD3
:1000C000D8E0DEBFCDBF11E0A0E0B1E0ECE2F9E1A5
:1000D00002C005900D92A23DB107D9F723E0A2ED31
:1000E000B1E001C01D92A338B207E1F710E0CDE501
:1000F000D0E004C02197FE010E94800CCC35D107CE
:10010000C9F70E9495080C94940C0C940000CF92AF
:10011000DF92EF92FF92DC01A03282E0B807D4F5C3
:10012000A53BB10514F0A4EBB0E040917F0328E8B3
:1001300030E0241B310947FD3395220F331F220F76
:10014000331F6901330FEE08FF084091800328E553
:1001500032E0241B310947FD3395220F331F220F54
:10016000331F032E000C440B550B2C193D094E096F
:100170005F09B7FF02C0B0E0A0E00E941F0C24EBB3
:1001800030E040E050E00E94F50BC20ED31EE41EAA
:10019000F51ED601E0917E03EC3080F520917F03BF
:1001A00088E890E0821B910927FD9395880F991F9D
:1001B000880F991FA817B90784F02091800388E55C
:1001C00092E0821B910927FD9395880F991F880F54
:1001D000991FA817B9070CF4CD010297880F991F32
:1001E0004FB7F8942E2F30E0F901EE0FFF1FE20F0A
:1001F000F31FE75AFC4F928381834FBFFF90EF902C
:10020000DF90CF90089590E0FC01EC55FF4F2491D2
:1002100080579F4FFC018491882399F090E0880FCC
:10022000991FFC01EA57FF4FA591B491FC01E458D6
:10023000FF4F859194918FB7F894EC91E22BEC935A
:100240008FBF089590E0FC01E859FF4F2491FC0115
:10025000EC55FF4F3491FC01E057FF4FE491EE2342
:10026000C9F0222339F0233001F1A8F4213019F12B
:10027000223029F1F0E0EE0FFF1FE458FF4FA59167
:10028000B4918FB7F894EC91611126C030953E235C
:100290003C938FBF08952730A9F02830C9F024304F
:1002A00049F7809180008F7D03C0809180008F7717
:1002B00080938000DFCF84B58F7784BDDBCF84B59A
:1002C0008F7DFBCF8091B0008F778093B000D2CF2D
:1002D0008091B0008F7DF9CF3E2BDACFE0916D0297
:1002E000F0916E02309729F0109268021092670226
:1002F00009940895CF93DF93AC01E0916B02F091E4
:100300006C023097F1F090916A028091690298171F
:10031000C0F090E0292F30E02617370754F4D901B8
:10032000AD52BE4F240F351FE90128812C939F5FEA
:10033000F1CF10926A0260936902CB01DF91CF91F5
:100340000994DF91CF910895AF92BF92CF92DF923F
:10035000EF92FF920F931F93CF93DF936C017B017A
:100360008B01040F151FEB015E01AE18BF08C0170B
:10037000D10759F06991D601ED91FC910190F0817E
:10038000E02DC6010995892B79F7C501DF91CF9141
:100390001F910F91FF90EF90DF90CF90BF90AF90A3
:1003A0000895FC01538D448D252F30E0842F90E07B
:1003B000821B930B541710F0CF9608950197089560
:1003C000FC01918D828D981761F0A28DAE0FBF2F29
:1003D000B11D5D968C91928D9F5F9F73928F90E07F
:1003E00008958FEF9FEF0895FC01918D828D9817EE
:1003F00031F0828DE80FF11D858D90E008958FEF2B
:100400009FEF0895FC01918D228D892F90E0805CF3
:100410009F4F821B91098F739927089580EB92E07B
:100420000E94020221E0892B09F420E0822F089526
:1004300080E090E0892B29F00E940E0281110C943B
:1004400000000895FC01A48DA80FB92FB11DA35A77
:10045000BF4F2C91848D90E001968F739927848FE4
:10046000A689B7892C93A089B1898C918370806407
:100470008C93938D848D981306C00288F389E02DA8
:1004800080818F7D80830895EF92FF920F931F9359
:10049000CF93DF93EC0181E0888F9B8D8C8D981337
:1004A0001AC0E889F989808185FF15C09FB7F89443
:1004B000EE89FF896083E889F9898081837080648F
:1004C00080839FBF81E090E0DF91CF911F910F91DA
:1004D000FF90EF900895F62E0B8D10E00F5F1F4FE9
:1004E0000F731127E02E8C8D8E110CC00FB607FCF8
:1004F000FACFE889F989808185FFF5CFCE010E9486
:100500002202F1CFEB8DEC0FFD2FF11DE35AFF4FCF
:10051000F0829FB7F8940B8FEA89FB898081806213
:10052000CFCFCF93DF93EC01888D8823B9F0AA89D0
:10053000BB89E889F9898C9185FD03C0808186FD9E
:100540000DC00FB607FCF7CF8C9185FFF2CF8081ED
:1005500085FFEDCFCE010E942202E9CFDF91CF913E
:10056000089520911902260F3327331F21323105B8
:10057000ECF420913D02FC0190E080E0243069F031
:1005800082E00895A09119022191AC0147505E4F7D
:10059000A40FB52FB11D2C930196861798F3809167
:1005A0001902680F6093190280E0089581E00895B0
:1005B00010923D0281E080933F0210923E0261E082
:1005C00082E10E94220161E083E10E942201E9EBC5
:1005D000F0E080818E7F808380818D7F808388E4BE
:1005E0008093B80085E48093BC0008950895E0915D
:1005F0006A0280916902E81730F4F0E0ED52FE4F94
:10060000808190E008958FEF9FEF089590916A02A6
:10061000809169022FEF3FEF981748F4E92FF0E03F
:10062000ED52FE4F208130E09F5F90936A02C90136
:1006300008958091690290916A02891B990B08952F
:10064000CF93DF93CB01EA01642F0E94B102CE0168
:10065000DF91CF910895CF93DF9300D01F92CDB754
:10066000DEB7E0E0F1E08081898381818A83828145
:100670008B8343E050E0BE016F5F7F4F8DE493E0DA
:100680000E9420030F900F900F90DF91CF9108955B
:10069000CF93DF931F92CDB7DEB7698361E0CE01C0
:1006A00001960E94B10281E090E00F90DF91CF911E
:1006B000089590E080E00895CF93DF93C0916902A0
:1006C000D0E0029709F580916A029E01281B31094A
:1006D00022303105C9F48DE493E00E940603C82F4F
:1006E0008DE493E00E940603853620F081E080933C
:1006F000A30207C0C093A5028093A40281E0809367
:10070000A602DF91CF91089580916A029E01281B75
:100710003109C901181619064CF78DE493E00E94BF
:100720000603F2CFCF93DF93C0919C02D0919D023C
:1007300085E00E9403012097B9F460E085E00E9403
:100740002201A0919A02B0919B0224EB30E00E941A
:10075000790C24E630E040E050E00E94F50BC9013E
:10076000DF91CF910C948700CF3FD10511F461E068
:10077000E5CFEDE6F0E0E491E33019F140F4E1304B
:10078000B1F0E230C9F0C038D1058CF7D6CFE730F0
:1007900011F1E83041F1E430B1F7809180008062DE
:1007A00080938000D0938B00C0938A00CACF84B519
:1007B000806884BDC7BDC5CF84B5806284BDC8BD17
:1007C000C0CF80918000806880938000D0938900A2
:1007D000C0938800B6CF8091B00080688093B0004D
:1007E000C093B300AECF8091B00080628093B00020
:1007F000C093B400A6CFFC0101900020E9F7319727
:10080000AF01481B590BBC0180EB92E00C94A40192
:100810008F929F92AF92BF920F931F93CF93DF93CC
:10082000CDB7DEB7A1970FB6F894DEBF0FBECDBF30
:1008300019A2423008F44AE08E010F5D1F4F842E4A
:10084000912CB12CA12CA50194010E94D30BE62F71
:10085000B901CA01EA30F4F4E05DD801EE938D01EC
:10086000232B242B252B79F790E080E0109719F0AB
:10087000CD010E94FB03A1960FB6F894DEBF0FBE18
:10088000CDBFDF91CF911F910F91BF90AF909F90FF
:100890008F900895E95CE1CFCF92DF92EF92FF92C3
:1008A000CF93DF936B017C016DE280EB92E00E94BD
:1008B0004402EC0166277727CB016C197D098E096C
:1008C0009F094AE00E9408048C0F9D1FDF91CF9181
:1008D000FF90EF90DF90CF900895CF93DF930E9429
:1008E000FB03EC0187E291E00E94FB038C0F9D1F4C
:1008F000DF91CF9108951F93CF93DF93F894E0E0B9
:10090000F1E01081D181C28178948AE291E00E9465
:10091000FB03612F70E090E080E04AE00E94080451
:1009200087E391E00E94FB036D2F70E090E080E090
:100930004AE00E94080487E391E00E94FB036C2FC9
:1009400070E090E080E04AE00E9408048AE391E0D1
:10095000DF91CF911F910C946D0490939D02809331
:100960009C0270939B0260939A020E9492032FB79D
:10097000F8948091AC029091AD02A091AE02B0913A
:10098000AF022FBF80939E0290939F02A093A0027C
:10099000B093A10281E08093A202F89480919C021E
:1009A0008093000180919A028093010110920201CC
:1009B00078940E947B048CE391E00E94FB03609199
:1009C0009C0270919D02072E000C880B990B97FFDB
:1009D00016C00E944C048EE391E00E94FB036091DC
:1009E0009A0270919B02072E000C880B990B97FFBF
:1009F0000AC00E944C0487E291E00C94FB034AE099
:100A00000E940804E8CF4AE00E940804F4CFCF9384
:100A1000DF9385ED8093BC008091F5019091F60104
:100A2000A091F701B091F8010796A11DB11D23E037
:100A3000B695A795979587952A95D1F72091BC00F3
:100A400024FD03C010923D0236C04091F501509143
:100A5000F6016091F7017091F801452B462B472B69
:100A600069F30097A105B10541F02AE22A95F1F753
:100A700000C00197A109B109E1CF8091F40191E093
:100A80009093F3018823B9F0C091B800D091BA00D7
:100A90008091BC008A7B8093BC0060E082E10E9470
:100AA000220160E083E10E9422010E94D802D093DB
:100AB000BA00C093B800DF91CF910895AF92BF9272
:100AC000CF92DF92EF92FF920F931F93CF93DF931A
:100AD00000D0CDB7DEB7DC01ED91FC91119790818C
:100AE00090539A3070F080E00F900F90DF91CF918B
:100AF0001F910F91FF90EF90DF90CF90BF90AF903C
:100B0000089559016A017B018D01109282031092B0
:100B100081034AE050E0BE016F5F7F4FCF010E942A
:100B2000A00AF501608371838283938320918103FE
:100B30003091820322323105B1F2C616D706E8069B
:100B4000F90688F289819A81F8019183808381E096
:100B5000CBCF1F920F920FB60F9211242F933F937A
:100B60008F939F93AF93BF938091AC029091AD020E
:100B7000A091AE02B091AF023091AB0223E0230FFF
:100B80002D3758F50196A11DB11D2093AB0280931E
:100B9000AC029093AD02A093AE02B093AF028091ED
:100BA000A7029091A802A091A902B091AA02019671
:100BB000A11DB11D8093A7029093A802A093A90242
:100BC000B093AA02BF91AF919F918F913F912F91C6
:100BD0000F900FBE0F901F90189526E8230F0296D6
:100BE000A11DB11DD2CF1F920F920FB60F921124EB
:100BF0002F933F934F935F936F937F938F939F9325
:100C0000AF93BF93EF93FF9380EB92E00E94220299
:100C1000FF91EF91BF91AF919F918F917F916F91D4
:100C20005F914F913F912F910F900FBE0F901F90AA
:100C300018951F920F920FB60F9211242F938F9336
:100C40009F93EF93FF93E091C002F091C1028081E6
:100C5000E091C602F091C70282FD1BC09081809195
:100C6000C9028F5F8F732091CA02821741F0E09111
:100C7000C902F0E0E055FD4F958F8093C902FF91C6
:100C8000EF919F918F912F910F900FBE0F901F901A
:100C900018958081F4CF1F920F920FB60F921124F6
:100CA0002F933F934F935F936F937F938F939F9374
:100CB000AF93BF93EF93FF938091B900887F803605
:100CC00009F44AC0F0F5883209F4A7C018F580315C
:100CD00009F49BC0B8F4882309F4F9C0883009F4FA
:100CE00094C0FF91EF91BF91AF919F918F917F91B0
:100CF0006F915F914F913F912F910F900FBE0F9089
:100D00001F901895883109F488C0803251F780937C
:100D10003C0214C0803409F49DC040F48033B9F320
:100D20008833F9F680933C0285ECB0C0803509F435
:100D300085C0883509F496C0883499F60E94070565
:100D4000D0CF883909F48CC038F5883729F050F4B1
:100D5000883611F0803729F683E080933D021092A7
:100D60003B0257C0883809F47BC0803919F08038BD
:100D700009F0B7CF80913B02803208F071C0E0915A
:100D80003B0281E08E0F80933B028091BB00F0E03C
:100D9000E55EFD4F80833DC0803B39F0E0F4803A52
:100DA00009F479C0883A09F09CCF84E080933D0231
:100DB00010921A0210921902E0916502F0916602F7
:100DC00009958091190281110FC081E08093190269
:100DD0001092F90109C0803C09F4A6CF883C09F4BF
:100DE000A3CF883B09F07DCFE0911A0281E08E0FFE
:100DF00080931A02F0E0E750FE4F80818093BB00A1
:100E000090911A028091190229C080916202809308
:100E1000BB0085EC8093BC0064CF9091610280910F
:100E20006002981758F5E091610281E08E0F80937F
:100E30006102F0E0E05CFD4F8081E9CFE09161026A
:100E400081E08E0F809361028091BB00F0E0E05C56
:100E5000FD4F808390916102809160029817C8F2E3
:100E600085E8D8CFE091610281E08E0F8093610226
:100E70008091BB00F0E0E05CFD4F808380913F02F9
:100E800081115CCF81E080933E0284EA8093BC00B4
:100E900010923D0226CF85EC8093BC0010923D025B
:100EA00080913B02803230F4E0913B02F0E0E55E5D
:100EB000FD4F108260913B0270E0E0916302F0917F
:100EC00064028BE192E0099510923B020ACF1092E6
:100ED0003C0234CF1F920F920FB60F9211242F9322
:100EE0003F934F935F936F937F938F939F93AF93B2
:100EF000BF93CF93DF93EF93FF938091D201C09183
:100F00007D03D0E087FF24C01092850010928400FA
:100F10008091D2018F5F8093D2018091D201082EFF
:100F2000000C990B8C179D0724F48091D2018C3012
:100F3000C4F18091840090918500049680349C498E
:100F400008F47AC08091840090918500049676C060
:100F50008091D201082E000C990B8C179D07C4F6C6
:100F6000E091D2018E2FEE0F990BFC01EE0FFF1FC7
:100F7000E80FF91FE75AFC4F808186FFC9CFE09147
:100F8000D2018E2FEE0F990BFC01EE0FFF1FE80F21
:100F9000F91FE75AFC4F808160E08F730E942201A5
:100FA000B7CF2091840030918500E091D2018E2F3F
:100FB000EE0F990BFC01EE0FFF1FE80FF91FE75A28
:100FC000FC4F81819281820F931F909389008093BF
:100FD0008800E091D2018E2FEE0F990BFC01EE0FED
:100FE000FF1FE80FF91FE75AFC4F808186FF11C0F1
:100FF000E091D2018E2FEE0F990BFC01EE0FFF1F37
:10100000E80FF91FE75AFC4F808161E08F730E945F
:101010002201FF91EF91DF91CF91BF91AF919F910D
:101020008F917F916F915F914F913F912F910F9091
:101030000FBE0F901F90189580E49CE99093890053
:10104000809388008FEF8093D201E3CF1092B30298
:101050001092B20288EE93E0A0E0B0E08093B40278
:101060009093B502A093B602B093B70227E031E0A7
:101070003093B1022093B00225EC30E03093BD02F2
:101080002093BC0224EC30E03093BF022093BE02D8
:1010900020EC30E03093C1022093C00221EC30E01C
:1010A0003093C3022093C20222EC30E03093C50299
:1010B0002093C40226EC30E03093C7022093C6028E
:1010C0001092C9021092CA021092CB021092CC0266
:1010D0001092500310924F03809351039093520348
:1010E000A0935303B093540389E191E090934E038E
:1010F00080934D0380917D038C3098F491E0980F9C
:1011000090937D0380937E0390E0FC01EE0FFF1F20
:10111000E80FF91FE75AFC4F88EB9BE0928381832D
:1011200008958FEF80937E030895CF93DF93CDB71B
:10113000DEB72A970FB6F894DEBF0FBECDBF789406
:1011400084B5826084BD84B5816084BD85B58260CC
:1011500085BD85B5816085BD80916E00816080937D
:101160006E001092810080918100826080938100E6
:1011700080918100816080938100809180008160F6
:10118000809380008091B10084608093B100809151
:10119000B00081608093B00080917A008460809379
:1011A0007A0080917A00826080937A0080917A0040
:1011B000816080937A0080917A00806880937A00C1
:1011C0001092C10085E00E94030185E00E940301A6
:1011D00060E085E00E94220190E080E00E948700AC
:1011E00080917E038C3008F050C089E00E9403019A
:1011F00080917E03282F30E0F901EE0FFF1FE20FF0
:10120000F31FE75AFC4F9081907C99609083109275
:101210007F03109280032CE0622F0E946D0C829F4E
:10122000B001112430E020E0AB01420F531FFA015E
:10123000EE0FFF1FE40FF51FE75AFC4F908196FD5C
:1012400016C02F5F3F4F2C30310571F781110FC051
:101250001092800082E080938100109285001092AD
:101260008400B19A80916F00826080936F00E0915A
:101270007E038E2F90E0FC01EE0FFF1FE80FF91F99
:10128000E75AFC4F808180648083E091C002F09136
:10129000C10282E08083E091BC02F091BD02108225
:1012A000E091BE02F091BF028FEC80831092C802E1
:1012B000E091C402F091C50286E08083E091C20211
:1012C000F091C302808180618083E091C202F0913D
:1012D000C302808188608083E091C202F091C302E2
:1012E000808180688083E091C202F091C302808196
:1012F0008F7D808310926A021092690210926802B8
:10130000109267020E94D8028EE691E090936602E6
:10131000809365028AE791E0909364028093630270
:1013200084E28093BA008CE593E090936C02809302
:101330006B028BE293E090936E0280936D0280E4E7
:1013400091E00E946D0400E010E0CC24C39493E788
:10135000E92E92E0F92E22E0B22E88E2D82E80EB20
:1013600092E00E94020218161906DCF480EB92E06B
:101370000E94E0018D3091F0909199028A3009F03D
:10138000C7C0992309F473C08CE491E00E946D04F6
:10139000109298021092970210929902DA94D1104A
:1013A000DECFF8949090A602A090A502D090A4025F
:1013B0001092A6028091A3021092A302789488232F
:1013C00021F08AEA91E00E946D04992031F06D2DA0
:1013D00070E08A2D90E00E94AD048091A2028823E3
:1013E000D1F12FB7F8948091AC029091AD02A09109
:1013F000AE02B091AF022FBF40919E0250919F026A
:101400006091A0027091A102841B950BA60BB70BF3
:1014100088389341A105B105F0F010929D02109219
:101420009C0210929B0210929A020E9492031092C8
:10143000A202F89480919C028093000180919A020C
:1014400080930101B092020178940E947B0480ECA9
:1014500091E00E946D040115110509F47ECF0E94F0
:101460000E02882309F479CF0E94000076CF809184
:10147000970290919802009709F48ACF81599D4F65
:10148000FC01108244E050E064E671E08FE692E0F7
:101490000E94860C892B19F089E691E077CFFA86B5
:1014A000E9869E012B5F3F4F4FEF50E060E070E018
:1014B000CE0109960E945E05811103C08BE791E081
:1014C00065CFE985FA8580818B3319F089E891E051
:1014D0005DCF3196FA87E9879E012F5F3F4F44E643
:1014E00050E060E070E0CE0109960E945E05811137
:1014F00003C08AE991E04ACFE985FA8580818111AC
:10150000E5CF69817A818D819E810E94AD0440CFB3
:10151000911144CF209197023091980227323105E2
:1015200060F4A9014F5F5F4F509398024093970278
:1015300021593D4FF901808331CFC09299022ECFBE
:10154000B0E0A0E0E6EAFAE00C94280C5C016B0144
:101550007A016115710519F0FB0191838083E11413
:10156000F10451F0C7010297839730F040E030E07A
:1015700020E090E072C05E01E5012196F501108146
:10158000812F90E00E94B70B892BA9F71D3201F53E
:101590002196F501118101E0E114F10409F4DAC0AA
:1015A000F0E1EF16F10409F082C0103359F488819C
:1015B0008F7D883509F076C0198122960260F0E1AE
:1015C000EF2EF12C812C912CA12C88E0B82E8CC010
:1015D0001B3221F4E5012296F501118100E0DCCFF8
:1015E000EAE0EE16F10409F4BBC0F0E1EF16F104F5
:1015F00009F06DC0E7CF78E0E72EF12C812C912C1B
:10160000A12C60E1B62E70C03FE9310F3A3128F4C9
:1016100039EA332E80C021E09AC0302F3170C114D6
:10162000D10431F0222309F12197F601D183C0833F
:1016300027FF21C060E070E080E090E8311104C035
:101640006FEF7FEF8FEF9FE722E230E0309382036E
:1016500020938103462F372F282F642F732F822F3B
:10166000CDB7DEB7E1E10C94440C01FF04C0229732
:10167000F601D183C083332341F090958095709516
:1016800061957F4F8F4F9F4FE5CF97FFE3CF82E26A
:1016900090E090938203809381036FEF7FEF8FEF51
:1016A0009FE7D8CF10E3E114F10409F4A4CF28E0B8
:1016B000E216F10409F4A2CF0CF092CF812C912C08
:1016C000A12CE0E4BE2E82E0E816F10469F060E0AF
:1016D00070E080E090E897010F2C000C440B550B54
:1016E0000E94D30B49015A0120E060E070E0CB0179
:1016F00027010F2C000C66087708FE0150ED352EEF
:10170000310E39E0331540F43FEB310F3A3108F038
:101710007BCF49EC342E310E3E141F040CF07DCFEC
:1017200027FD15C086169706A806B90678F0A3010E
:1017300092010E94C30B630D711D811D911D6130CB
:101740007105810520E8920708F465CF2FEF2196F7
:101750001081D3CF103309F42ACF2AE0E22EF12CE6
:101760009CEC892E982CA82C9CE0B92EBDCF911111
:101770000C94C00B803219F089508550C8F7089539
:10178000992788270895DB018F939F930E94140C5B
:10179000BF91AF91A29F800D911DA39F900DB29F0D
:1017A000900D11240895A1E21A2EAA1BBB1BFD0166
:1017B0000DC0AA1FBB1FEE1FFF1FA217B307E40730
:1017C000F50720F0A21BB30BE40BF50B661F771F88
:1017D000881F991F1A9469F7609570958095909568
:1017E0009B01AC01BD01CF010895052E97FB1EF4AE
:1017F00000940E940C0C57FD07D00E94D30B07FCED
:1018000003D04EF40C940C0C5095409530952195D6
:101810003F4F4F4F5F4F089590958095709561951C
:101820007F4F8F4F9F4F08950E945E0CA59F900D94
:10183000B49F900DA49F800D911D11240895B7FFB2
:101840000C94140C0E94140C821B930B08952F927D
:101850003F924F925F926F927F928F929F92AF9240
:10186000BF92CF92DF92EF92FF920F931F93CF938D
:10187000DF93CDB7DEB7CA1BDB0B0FB6F894DEBF24
:101880000FBECDBF09942A88398848885F846E844A
:101890007D848C849B84AA84B984C884DF80EE8094
:1018A000FD800C811B81AA81B981CE0FD11D0FB69D
:1018B000F894DEBF0FBECDBFED010895A29FB00129
:1018C000B39FC001A39F700D811D1124911DB29F74
:1018D000700D811D1124911D0895991B79E004C09C
:1018E000991F961708F0961B881F7A95C9F780955F
:1018F00008950E945E0CB7FF0895821B930B089514
:10190000EE0FFF1F0590F491E02D0994FB01DC011F
:101910004150504030F08D910190801919F4002011
:0C192000B9F7881B990B0895F894FFCFCD
:10192C00000001000000004402A401D10191020258
:10193C0002E001F40100000000480320035903F603
:10194C000219030603F7020D0A004932432D5061B8
:10195C006B65743A205B002C20005D004F4B3B0004
:10196C0052454144593B4143544F52004552523B1E
:10197C004143544F523B4C494E455F544F4F5F4C83
:10198C004F4E47005345543B004552523B41435444
:10199C004F523B434F4D4D414E44004552523B41FB
:1019AC0043544F523B46414E004552523B414354E7
:1019BC004F523B464F524D4154004552523B4143CE
:1019CC00544F523B56414C5645004552523B4143B5
:1019DC00544F523B4932435F434F4D4D414E4400AF
:1019EC004552523B4143544F523B54494D454F5540
:0219FC00540095
:00000001FF
