:100000000C945D000C9485000C9485000C94850084
:100010000C9485000C9485000C9485000C9485004C
:100020000C9485000C9485000C9485000C9451046C
:100030000C9485000C9485000C9485000C9485002C
:100040000C94AF030C9485000C941F040C94F903DA
:100050000C9485000C9485000C9485000C9485000C
:100060000C9485000C94850000000008000201003B
:100070000003040700000000000000000000000072
:10008000250028002B0000000000240027002A0083
:10009000040404040404040402020202020203032E
:1000A0000303030301020408102040800102040836
:1000B00010200102040810200D0511241FBECFEFEF
:1000C000D8E0DEBFCDBF11E0A0E0B1E0ECEBF2E1A3
:1000D00002C005900D92A639B107D9F722E0A6E932
:1000E000B1E001C01D92AB39B207E1F710E0CDE5F8
:1000F000D0E004C02197FE010E944809CC35D10709
:10010000C9F70E946A050C945C090C940000CF9218
:10011000DF92EF92FF92DC01A03282E0B807D4F5C3
:10012000A53BB10514F0A4EBB0E04091970228E89C
:1001300030E0241B310947FD3395220F331F220F76
:10014000331F6901330FEE08FF084091980228E53C
:1001500032E0241B310947FD3395220F331F220F54
:10016000331F032E000C440B550B2C193D094E096F
:100170005F09B7FF02C0B0E0A0E00E94E70824EBEF
:1001800030E040E050E00E94BD08C20ED31EE41EE5
:10019000F51ED601E0919602EC3080F52091970291
:1001A00088E890E0821B910927FD9395880F991F9D
:1001B000880F991FA817B90784F02091980288E545
:1001C00092E0821B910927FD9395880F991F880F54
:1001D000991FA817B9070CF4CD010297880F991F32
:1001E0004FB7F8942E2F30E0F901EE0FFF1FE20F0A
:1001F000F31FEF58FD4F928381834FBFFF90EF9025
:10020000DF90CF90089590E0FC01EC55FF4F2491D2
:1002100080579F4FFC018491882399F090E0880FCC
:10022000991FFC01EA57FF4FA591B491FC01E458D6
:10023000FF4F859194918FB7F894EC91E22BEC935A
:100240008FBF089590E0FC01E859FF4F2491FC0115
:10025000EC55FF4F3491FC01E057FF4FE491EE2342
:10026000C9F0222339F0233001F1A8F4213019F12B
:10027000223029F1F0E0EE0FFF1FE458FF4FA59167
:10028000B4918FB7F894EC91611126C030953E235C
:100290003C938FBF08952730A9F02830C9F024304F
:1002A00049F7809180008F7D03C0809180008F7717
:1002B00080938000DFCF84B58F7784BDDBCF84B59A
:1002C0008F7DFBCF8091B0008F778093B000D2CF2D
:1002D0008091B0008F7DF9CF3E2BDACFAF92BF92E5
:1002E000CF92DF92EF92FF920F931F93CF93DF9302
:1002F0006C017B018B01040F151FEB015E01AE1831
:10030000BF08C017D10759F06991D601ED91FC9152
:100310000190F081E02DC6010995892B79F7C5017F
:10032000DF91CF911F910F91FF90EF90DF90CF90D1
:10033000BF90AF900895FC01538D448D252F30E080
:10034000842F90E0821B930B541710F0CF960895E2
:1003500001970895FC01918D828D981761F0A28D0F
:10036000AE0FBF2FB11D5D968C91928D9F5F9F73D5
:10037000928F90E008958FEF9FEF0895FC01918D8B
:10038000828D981731F0828DE80FF11D858D90E0F8
:1003900008958FEF9FEF0895FC01918D228D892F95
:1003A00090E0805C9F4F821B91098F73992708957D
:1003B00084ED91E00E94CC0121E0892B09F420E03A
:1003C000822F089580E090E0892B29F00E94D801C7
:1003D00081110C9400000895FC01A48DA80FB92F81
:1003E000B11DA35ABF4F2C91848D90E001968F735D
:1003F0009927848FA689B7892C93A089B1898C917C
:10040000837080648C93938D848D981306C00288CA
:10041000F389E02D80818F7D80830895EF92FF9294
:100420000F931F93CF93DF93EC0181E0888F9B8D17
:100430008C8D98131AC0E889F989808185FF15C0D1
:100440009FB7F894EE89FF896083E889F9898081F4
:100450008370806480839FBF81E090E0DF91CF91C3
:100460001F910F91FF90EF900895F62E0B8D10E0E5
:100470000F5F1F4F0F731127E02E8C8D8E110CC054
:100480000FB607FCFACFE889F989808185FFF5CF9F
:10049000CE010E94EC01F1CFEB8DEC0FFD2FF11D91
:1004A000E35AFF4FF0829FB7F8940B8FEA89FB89DC
:1004B00080818062CFCFCF93DF93EC01888D88233A
:1004C000B9F0AA89BB89E889F9898C9185FD03C0B7
:1004D000808186FD0DC00FB607FCF7CF8C9185FF9C
:1004E000F2CF808185FFEDCFCE010E94EC01E9CFF4
:1004F000DF91CF910895CF93DF93C0919901D0916F
:100500009A0185E00E9403012097B9F460E085E03C
:100510000E942201A0919701B091980124EB30E054
:100520000E94410924E630E040E050E00E94BD080E
:10053000C901DF91CF910C948700CF3FD10511F411
:1005400061E0E5CFEDE6F0E0E491E33019F140F44D
:10055000E130B1F0E230C9F0C038D1058CF7D6CF28
:10056000E73011F1E83041F1E430B1F780918000DB
:10057000806280938000D0938B00C0938A00CACFA2
:1005800084B5806884BDC7BDC5CF84B5806284BD95
:10059000C8BDC0CF80918000806880938000D093D8
:1005A0008900C0938800B6CF8091B00080688093A6
:1005B000B000C093B300AECF8091B0008062809352
:1005C000B000C093B400A6CFFC0101900020E9F771
:1005D0003197AF01481B590BBC0184ED91E00C949D
:1005E0006E018F929F92AF92BF920F931F93CF9302
:1005F000DF93CDB7DEB7A1970FB6F894DEBF0FBE7D
:10060000CDBF19A2423008F44AE08E010F5D1F4FA2
:10061000842E912CB12CA12CA50194010E949B0841
:10062000E62FB901CA01EA30F4F4E05DD801EE9397
:100630008D01232B242B252B79F790E080E0109758
:1006400019F0CD010E94E402A1960FB6F894DEBF26
:100650000FBECDBFDF91CF911F910F91BF90AF9093
:100660009F908F900895E95CE1CFCF92DF92EF9257
:10067000FF92CF93DF936B017C016DE284ED91E0FB
:100680000E940E02EC0166277727CB016C197D09C9
:100690008E099F094AE00E94F1028C0F9D1FDF9195
:1006A000CF91FF90EF90DF90CF900895CF93DF939D
:1006B0000E94E402EC0182E191E00E94E4028C0FCE
:1006C0009D1FDF91CF910895AF92BF92CF92DF929D
:1006D000EF92FF920F931F93CF93DF9300D0CDB78C
:1006E000DEB7DC01ED91FC911197908190539A3027
:1006F00070F080E00F900F90DF91CF911F910F91DC
:10070000FF90EF90DF90CF90BF90AF900895590188
:100710006A017B018D0110929A02109299024AE0BF
:1007200050E0BE016F5F7F4FCF010E946807F50167
:1007300060837183828393832091990230919A021E
:1007400022323105B1F2C616D706E806F90688F25C
:1007500089819A81F8019183808381E0CBCF1F92B8
:100760000F920FB60F9211242F933F938F939F9365
:10077000AF93BF938091D0019091D101A091D2010C
:10078000B091D3013091CF0123E0230F2D3758F5DD
:100790000196A11DB11D2093CF018093D0019093AC
:1007A000D101A093D201B093D3018091CB0190915C
:1007B000CC01A091CD01B091CE010196A11DB11D3A
:1007C0008093CB019093CC01A093CD01B093CE0147
:1007D000BF91AF919F918F913F912F910F900FBE3D
:1007E0000F901F90189526E8230F0296A11DB11DAA
:1007F000D2CF1F920F920FB60F9211242F933F93D7
:100800004F935F936F937F938F939F93AF93BF9318
:10081000EF93FF9384ED91E00E94EC01FF91EF9143
:10082000BF91AF919F918F917F916F915F914F9108
:100830003F912F910F900FBE0F901F9018951F9210
:100840000F920FB60F9211242F938F939F93EF93D4
:10085000FF93E091E401F091E5018081E091EA01EC
:10086000F091EB0182FD1BC090818091ED018F5FC3
:100870008F732091EE01821741F0E091ED01F0E0DD
:10088000EC52FE4F958F8093ED01FF91EF919F9178
:100890008F912F910F900FBE0F901F901895808110
:1008A000F4CF1F920F920FB60F9211242F933F9304
:1008B0004F935F936F937F938F939F93AF93BF9368
:1008C000CF93DF93EF93FF9380919601C0919502B0
:1008D000D0E087FF24C010928500109284008091A0
:1008E00096018F5F8093960180919601082E000CEF
:1008F000990B8C179D0724F4809196018C30C4F1DC
:100900008091840090918500049680349C4908F47D
:100910007AC08091840090918500049676C0809181
:100920009601082E000C990B8C179D07C4F6E091D8
:1009300096018E2FEE0F990BFC01EE0FFF1FE80FB3
:10094000F91FEF58FD4F808186FFC9CFE0919601D6
:100950008E2FEE0F990BFC01EE0FFF1FE80FF91F12
:10096000EF58FD4F808160E08F730E942201B7CF66
:100970002091840030918500E09196018E2FEE0F3A
:10098000990BFC01EE0FFF1FE80FF91FEF58FD4F09
:1009900081819281820F931F9093890080938800B8
:1009A000E09196018E2FEE0F990BFC01EE0FFF1FC9
:1009B000E80FF91FEF58FD4F808186FF11C0E091CD
:1009C00096018E2FEE0F990BFC01EE0FFF1FE80F23
:1009D000F91FEF58FD4F808161E08F730E94220163
:1009E000FF91EF91DF91CF91BF91AF919F918F9147
:1009F0007F916F915F914F913F912F910F900FBE1B
:100A00000F901F90189580E49CE990938900809343
:100A100088008FEF80939601E3CF1092D701109258
:100A2000D60188EE93E0A0E0B0E08093D8019093E7
:100A3000D901A093DA01B093DB0184E091E09093B7
:100A4000D5018093D40185EC90E09093E1018093EF
:100A5000E00184EC90E09093E3018093E20180EC6C
:100A600090E09093E5018093E40181EC90E0909315
:100A7000E7018093E60182EC90E09093E901809396
:100A8000E80186EC90E09093EB018093EA011092EC
:100A9000ED011092EE011092EF011092F0018091A1
:100AA00095028C3098F491E0980F90939502809382
:100AB000960290E0FC01EE0FFF1FE80FF91FEF58C0
:100AC000FD4F88EB9BE09283818308958FEF8093A5
:100AD00096020895CF93DF93CDB7DEB72A970FB66E
:100AE000F894DEBF0FBECDBF789484B5826084BD1C
:100AF00084B5816084BD85B5826085BD85B5816022
:100B000085BD80916E00816080936E00109281009F
:100B1000809181008260809381008091810081605A
:100B2000809381008091800081608093800080911B
:100B3000B10084608093B1008091B00081608093A7
:100B4000B00080917A00846080937A0080917A006E
:100B5000826080937A0080917A00816080937A002D
:100B600080917A00806880937A001092C10085E0BD
:100B70000E94030185E00E94030160E085E00E947D
:100B8000220190E080E00E948700809196028C30E4
:100B900008F050C089E00E94030180919602282F3E
:100BA00030E0F901EE0FFF1FE20FF31FEF58FD4F8A
:100BB0009081907C99609083109297021092980295
:100BC0002CE0622F0E943509829FB001112430E091
:100BD00020E0AB01420F531FFA01EE0FFF1FE40F9D
:100BE000F51FEF58FD4F908196FD16C02F5F3F4FC8
:100BF0002C30310571F781110FC01092800082E016
:100C0000809381001092850010928400B19A8091A7
:100C10006F00826080936F00E09196028E2F90E0CB
:100C2000FC01EE0FFF1FE80FF91FEF58FD4F808109
:100C300080648083E091E401F091E50182E08083AB
:100C4000E091E001F091E1011082E091E201F09188
:100C5000E3018FEC80831092EC01E091E801F091C8
:100C6000E90186E08083E091E601F091E70180816F
:100C700080618083E091E601F091E70180818860E6
:100C80008083E091E601F091E701808180688083B4
:100C9000E091E601F091E70180818F7D808385E11D
:100CA00091E00E94560300E010E0DD24D39484EA32
:100CB000E82E81E0F82E84ED91E00E94CC01181618
:100CC00019060CF0C9C084ED91E00E94AA018D3094
:100CD00091F39091CA018A3009F0A6C0992359F086
:100CE00081E291E00E9456031092C9011092C8015E
:100CF0001092CA01E0CF8091C8019091C90100977C
:100D000099F380569E4FFC01108244E050E069E365
:100D100071E080EA91E00E944E09892B19F08EE380
:100D200091E0E0CFFA86E9869E012B5F3F4F4FEFBF
:100D300050E060E070E0CE0109960E9464038111EA
:100D400003C080E591E0CECFE985FA8580818B33C1
:100D500019F08EE591E0C6CF3196FA87E9879E01BA
:100D60002F5F3F4F44E650E060E070E0CE0109960F
:100D70000E946403811103C08FE691E0B3CFE9853F
:100D8000FA8580818111E5CF8D819E8190939A01B2
:100D90008093990189819A8190939801809397011A
:100DA0000E947B022FB7F8948091D0019091D101DD
:100DB000A091D201B091D3012FBF80939B0190935A
:100DC0009C01A0939D01B0939E01D0929F018FE75B
:100DD00091E00E94E4026091990170919A01072EBE
:100DE000000C880B990B97FF17C00E94350381E810
:100DF00091E00E94E4026091970170919801072EA2
:100E0000000C880B990B97FF0BC00E94350382E101
:100E100091E00E94E40268CF4AE00E94F102E7CF2D
:100E20004AE00E94F102F3CF911145CF2091C80111
:100E30003091C9012732310560F4A9014F5F5F4F3E
:100E40005093C9014093C80120563E4FF901808359
:100E500032CFD092CA012FCF80919F01882361F1B8
:100E60002FB7F8948091D0019091D101A091D20137
:100E7000B091D3012FBF40919B0150919C01609193
:100E80009D0170919E01841B950BA60BB70B8838B2
:100E90009341A105B10580F010929A011092990139
:100EA00010929801109297010E947B0210929F016C
:100EB00083E891E00E9456030115110509F4FBCE69
:100EC0000E94D801882309F4F6CE0E940000F3CED8
:100ED000B0E0A0E0EEE6F7E00C94F0085C016B01F6
:100EE0007A016115710519F0FB0191838083E1148A
:100EF000F10451F0C7010297839730F040E030E0F1
:100F000020E090E072C05E01E5012196F5011081BC
:100F1000812F90E00E947F08892BA9F71D3201F5EF
:100F20002196F501118101E0E114F10409F4DAC020
:100F3000F0E1EF16F10409F082C0103359F4888112
:100F40008F7D883509F076C0198122960260F0E124
:100F5000EF2EF12C812C912CA12C88E0B82E8CC086
:100F60001B3221F4E5012296F501118100E0DCCF6E
:100F7000EAE0EE16F10409F4BBC0F0E1EF16F1046B
:100F800009F06DC0E7CF78E0E72EF12C812C912C91
:100F9000A12C60E1B62E70C03FE9310F3A3128F440
:100FA00039EA332E80C021E09AC0302F3170C1144D
:100FB000D10431F0222309F12197F601D183C083B6
:100FC00027FF21C060E070E080E090E8311104C0AC
:100FD0006FEF7FEF8FEF9FE722E230E030939A02CE
:100FE00020939902462F372F282F642F732F822F9B
:100FF000CDB7DEB7E1E10C940C0901FF04C02297E4
:10100000F601D183C083332341F09095809570958C
:1010100061957F4F8F4F9F4FE5CF97FFE3CF82E2E0
:1010200090E090939A02809399026FEF7FEF8FEF99
:101030009FE7D8CF10E3E114F10409F4A4CF28E02E
:10104000E216F10409F4A2CF0CF092CF812C912C7E
:10105000A12CE0E4BE2E82E0E816F10469F060E025
:1010600070E080E090E897010F2C000C440B550BCA
:101070000E949B0849015A0120E060E070E0CB012A
:1010800027010F2C000C66087708FE0150ED352E65
:10109000310E39E0331540F43FEB310F3A3108F0AF
:1010A0007BCF49EC342E310E3E141F040CF07DCF63
:1010B00027FD15C086169706A806B90678F0A30185
:1010C00092010E948B08630D711D811D911D61307D
:1010D0007105810520E8920708F465CF2FEF21966E
:1010E0001081D3CF103309F42ACF2AE0E22EF12C5D
:1010F0009CEC892E982CA82C9CE0B92EBDCF911188
:101100000C948808803219F089508550C8F70895EA
:10111000992788270895DB018F939F930E94DC080D
:10112000BF91AF91A29F800D911DA39F900DB29F83
:10113000900D11240895A1E21A2EAA1BBB1BFD01DC
:101140000DC0AA1FBB1FEE1FFF1FA217B307E407A6
:10115000F50720F0A21BB30BE40BF50B661F771FFE
:10116000881F991F1A9469F76095709580959095DE
:101170009B01AC01BD01CF010895052E97FB1EF424
:1011800000940E94D40857FD07D00E949B0807FCDA
:1011900003D04EF40C94D408509540953095219589
:1011A0003F4F4F4F5F4F0895909580957095619593
:1011B0007F4F8F4F9F4F08950E942609A59F900D46
:1011C000B49F900DA49F800D911D11240895B7FF29
:1011D0000C94DC080E94DC08821B930B08952F926C
:1011E0003F924F925F926F927F928F929F92AF92B7
:1011F000BF92CF92DF92EF92FF920F931F93CF9304
:10120000DF93CDB7DEB7CA1BDB0B0FB6F894DEBF9A
:101210000FBECDBF09942A88398848885F846E84C0
:101220007D848C849B84AA84B984C884DF80EE800A
:10123000FD800C811B81AA81B981CE0FD11D0FB613
:10124000F894DEBF0FBECDBFED010895A29FB0019F
:10125000B39FC001A39F700D811D1124911DB29FEA
:10126000700D811D1124911D0895991B79E004C012
:10127000991F961708F0961B881F7A95C9F78095D5
:1012800008950E942609B7FF0895821B930B0895C5
:10129000EE0FFF1F0590F491E02D0994FB01DC0196
:1012A0004150504030F08D910190801919F4002088
:0C12B000B9F7881B990B0895F894FFCF44
:1012BC00000000000E026E019B015B02CC01AA0132
:1012CC00BE010D0A0052454144593B4143544F5213
:1012DC00004552523B4143544F523B4C494E455FA3
:1012EC00544F4F5F4C4F4E47005345543B004552B3
:1012FC00523B4143544F523B434F4D4D414E4400A2
:10130C004552523B4143544F523B46414E0045528D
:10131C00523B4143544F523B464F524D4154004572
:10132C0052523B4143544F523B56414C5645004F51
:10133C004B3B004552523B4143544F523B54494D59
:06134C00454F555400005E
:00000001FF
